{
  "_format": "hh-sol-artifact-1",
  "contractName": "ClaimsManagerWithKlerosArbitrator",
  "sourceName": "contracts/ClaimsManagerWithKlerosArbitrator.sol",
  "abi": [
    {
      "inputs": [
        {
          "internalType": "address",
          "name": "_accessControlRegistry",
          "type": "address"
        },
        {
          "internalType": "string",
          "name": "_adminRoleDescription",
          "type": "string"
        },
        {
          "internalType": "address",
          "name": "_manager",
          "type": "address"
        },
        {
          "internalType": "address",
          "name": "_api3Pool",
          "type": "address"
        },
        {
          "internalType": "uint256",
          "name": "_mediatorResponsePeriod",
          "type": "uint256"
        },
        {
          "internalType": "uint256",
          "name": "_claimantResponsePeriod",
          "type": "uint256"
        },
        {
          "internalType": "address",
          "name": "_klerosArbitrator",
          "type": "address"
        },
        {
          "internalType": "bytes",
          "name": "_klerosArbitratorExtraData",
          "type": "bytes"
        },
        {
          "internalType": "uint256",
          "name": "_klerosArbitratorResponsePeriod",
          "type": "uint256"
        }
      ],
      "stateMutability": "nonpayable",
      "type": "constructor"
    },
    {
      "anonymous": false,
      "inputs": [
        {
          "indexed": true,
          "internalType": "uint256",
          "name": "claimIndex",
          "type": "uint256"
        },
        {
          "indexed": true,
          "internalType": "address",
          "name": "claimant",
          "type": "address"
        },
        {
          "indexed": false,
          "internalType": "address",
          "name": "beneficiary",
          "type": "address"
        },
        {
          "indexed": false,
          "internalType": "uint256",
          "name": "claimAmount",
          "type": "uint256"
        },
        {
          "indexed": false,
          "internalType": "address",
          "name": "sender",
          "type": "address"
        }
      ],
      "name": "AcceptedClaim",
      "type": "event"
    },
    {
      "anonymous": false,
      "inputs": [
        {
          "indexed": true,
          "internalType": "uint256",
          "name": "claimIndex",
          "type": "uint256"
        },
        {
          "indexed": true,
          "internalType": "address",
          "name": "claimant",
          "type": "address"
        },
        {
          "indexed": false,
          "internalType": "uint256",
          "name": "amount",
          "type": "uint256"
        }
      ],
      "name": "AcceptedSettlement",
      "type": "event"
    },
    {
      "anonymous": false,
      "inputs": [
        {
          "indexed": true,
          "internalType": "uint256",
          "name": "claimIndex",
          "type": "uint256"
        },
        {
          "indexed": true,
          "internalType": "address",
          "name": "sender",
          "type": "address"
        },
        {
          "indexed": true,
          "internalType": "uint256",
          "name": "klerosArbitratorDisputeId",
          "type": "uint256"
        }
      ],
      "name": "AppealedKlerosArbitratorDecision",
      "type": "event"
    },
    {
      "anonymous": false,
      "inputs": [
        {
          "indexed": true,
          "internalType": "uint256",
          "name": "claimIndex",
          "type": "uint256"
        },
        {
          "indexed": true,
          "internalType": "address",
          "name": "claimant",
          "type": "address"
        },
        {
          "indexed": true,
          "internalType": "bytes32",
          "name": "policyHash",
          "type": "bytes32"
        },
        {
          "indexed": false,
          "internalType": "address",
          "name": "beneficiary",
          "type": "address"
        },
        {
          "indexed": false,
          "internalType": "uint256",
          "name": "coverageAmount",
          "type": "uint256"
        },
        {
          "indexed": false,
          "internalType": "uint256",
          "name": "startTime",
          "type": "uint256"
        },
        {
          "indexed": false,
          "internalType": "uint256",
          "name": "endTime",
          "type": "uint256"
        },
        {
          "indexed": false,
          "internalType": "string",
          "name": "policy",
          "type": "string"
        },
        {
          "indexed": false,
          "internalType": "uint256",
          "name": "claimAmount",
          "type": "uint256"
        },
        {
          "indexed": false,
          "internalType": "string",
          "name": "evidence",
          "type": "string"
        },
        {
          "indexed": false,
          "internalType": "uint256",
          "name": "claimCreationTime",
          "type": "uint256"
        }
      ],
      "name": "CreatedClaim",
      "type": "event"
    },
    {
      "anonymous": false,
      "inputs": [
        {
          "indexed": true,
          "internalType": "uint256",
          "name": "claimIndex",
          "type": "uint256"
        },
        {
          "indexed": true,
          "internalType": "address",
          "name": "claimant",
          "type": "address"
        },
        {
          "indexed": false,
          "internalType": "address",
          "name": "arbitrator",
          "type": "address"
        }
      ],
      "name": "CreatedDispute",
      "type": "event"
    },
    {
      "anonymous": false,
      "inputs": [
        {
          "indexed": true,
          "internalType": "uint256",
          "name": "claimIndex",
          "type": "uint256"
        },
        {
          "indexed": true,
          "internalType": "address",
          "name": "claimant",
          "type": "address"
        },
        {
          "indexed": true,
          "internalType": "uint256",
          "name": "klerosArbitratorDisputeId",
          "type": "uint256"
        }
      ],
      "name": "CreatedDisputeWithKlerosArbitrator",
      "type": "event"
    },
    {
      "anonymous": false,
      "inputs": [
        {
          "indexed": false,
          "internalType": "address",
          "name": "beneficiary",
          "type": "address"
        },
        {
          "indexed": true,
          "internalType": "address",
          "name": "claimant",
          "type": "address"
        },
        {
          "indexed": true,
          "internalType": "bytes32",
          "name": "policyHash",
          "type": "bytes32"
        },
        {
          "indexed": false,
          "internalType": "uint256",
          "name": "coverageAmount",
          "type": "uint256"
        },
        {
          "indexed": false,
          "internalType": "uint256",
          "name": "startTime",
          "type": "uint256"
        },
        {
          "indexed": false,
          "internalType": "uint256",
          "name": "endTime",
          "type": "uint256"
        },
        {
          "indexed": false,
          "internalType": "string",
          "name": "policy",
          "type": "string"
        },
        {
          "indexed": false,
          "internalType": "address",
          "name": "sender",
          "type": "address"
        }
      ],
      "name": "CreatedPolicy",
      "type": "event"
    },
    {
      "anonymous": false,
      "inputs": [
        {
          "indexed": true,
          "internalType": "contract IArbitrator",
          "name": "_arbitrator",
          "type": "address"
        },
        {
          "indexed": true,
          "internalType": "uint256",
          "name": "_disputeID",
          "type": "uint256"
        },
        {
          "indexed": false,
          "internalType": "uint256",
          "name": "_metaEvidenceID",
          "type": "uint256"
        },
        {
          "indexed": false,
          "internalType": "uint256",
          "name": "_evidenceGroupID",
          "type": "uint256"
        }
      ],
      "name": "Dispute",
      "type": "event"
    },
    {
      "anonymous": false,
      "inputs": [
        {
          "indexed": true,
          "internalType": "contract IArbitrator",
          "name": "_arbitrator",
          "type": "address"
        },
        {
          "indexed": true,
          "internalType": "uint256",
          "name": "_evidenceGroupID",
          "type": "uint256"
        },
        {
          "indexed": true,
          "internalType": "address",
          "name": "_party",
          "type": "address"
        },
        {
          "indexed": false,
          "internalType": "string",
          "name": "_evidence",
          "type": "string"
        }
      ],
      "name": "Evidence",
      "type": "event"
    },
    {
      "anonymous": false,
      "inputs": [
        {
          "indexed": true,
          "internalType": "uint256",
          "name": "_metaEvidenceID",
          "type": "uint256"
        },
        {
          "indexed": false,
          "internalType": "string",
          "name": "_evidence",
          "type": "string"
        }
      ],
      "name": "MetaEvidence",
      "type": "event"
    },
    {
      "anonymous": false,
      "inputs": [
        {
          "indexed": true,
          "internalType": "uint256",
          "name": "claimIndex",
          "type": "uint256"
        },
        {
          "indexed": true,
          "internalType": "address",
          "name": "claimant",
          "type": "address"
        },
        {
          "indexed": false,
          "internalType": "uint256",
          "name": "amount",
          "type": "uint256"
        },
        {
          "indexed": false,
          "internalType": "address",
          "name": "sender",
          "type": "address"
        }
      ],
      "name": "ProposedSettlement",
      "type": "event"
    },
    {
      "anonymous": false,
      "inputs": [
        {
          "indexed": true,
          "internalType": "address",
          "name": "account",
          "type": "address"
        },
        {
          "indexed": false,
          "internalType": "address",
          "name": "sender",
          "type": "address"
        }
      ],
      "name": "ResetQuota",
      "type": "event"
    },
    {
      "anonymous": false,
      "inputs": [
        {
          "indexed": true,
          "internalType": "uint256",
          "name": "claimIndex",
          "type": "uint256"
        },
        {
          "indexed": true,
          "internalType": "address",
          "name": "claimant",
          "type": "address"
        },
        {
          "indexed": false,
          "internalType": "address",
          "name": "beneficiary",
          "type": "address"
        },
        {
          "indexed": false,
          "internalType": "uint256",
          "name": "amount",
          "type": "uint256"
        },
        {
          "indexed": false,
          "internalType": "address",
          "name": "arbitrator",
          "type": "address"
        }
      ],
      "name": "ResolvedDisputeByAcceptingClaim",
      "type": "event"
    },
    {
      "anonymous": false,
      "inputs": [
        {
          "indexed": true,
          "internalType": "uint256",
          "name": "claimIndex",
          "type": "uint256"
        },
        {
          "indexed": true,
          "internalType": "address",
          "name": "claimant",
          "type": "address"
        },
        {
          "indexed": false,
          "internalType": "address",
          "name": "beneficiary",
          "type": "address"
        },
        {
          "indexed": false,
          "internalType": "uint256",
          "name": "amount",
          "type": "uint256"
        },
        {
          "indexed": false,
          "internalType": "address",
          "name": "arbitrator",
          "type": "address"
        }
      ],
      "name": "ResolvedDisputeByAcceptingSettlement",
      "type": "event"
    },
    {
      "anonymous": false,
      "inputs": [
        {
          "indexed": true,
          "internalType": "uint256",
          "name": "claimIndex",
          "type": "uint256"
        },
        {
          "indexed": true,
          "internalType": "address",
          "name": "claimant",
          "type": "address"
        },
        {
          "indexed": false,
          "internalType": "address",
          "name": "arbitrator",
          "type": "address"
        }
      ],
      "name": "ResolvedDisputeByRejectingClaim",
      "type": "event"
    },
    {
      "anonymous": false,
      "inputs": [
        {
          "indexed": true,
          "internalType": "contract IArbitrator",
          "name": "_arbitrator",
          "type": "address"
        },
        {
          "indexed": true,
          "internalType": "uint256",
          "name": "_disputeID",
          "type": "uint256"
        },
        {
          "indexed": false,
          "internalType": "uint256",
          "name": "_ruling",
          "type": "uint256"
        }
      ],
      "name": "Ruling",
      "type": "event"
    },
    {
      "anonymous": false,
      "inputs": [
        {
          "indexed": false,
          "internalType": "address",
          "name": "api3Pool",
          "type": "address"
        }
      ],
      "name": "SetApi3Pool",
      "type": "event"
    },
    {
      "anonymous": false,
      "inputs": [
        {
          "indexed": true,
          "internalType": "address",
          "name": "arbitrator",
          "type": "address"
        },
        {
          "indexed": false,
          "internalType": "uint256",
          "name": "arbitratorResponsePeriod",
          "type": "uint256"
        },
        {
          "indexed": false,
          "internalType": "address",
          "name": "sender",
          "type": "address"
        }
      ],
      "name": "SetArbitratorResponsePeriod",
      "type": "event"
    },
    {
      "anonymous": false,
      "inputs": [
        {
          "indexed": false,
          "internalType": "uint256",
          "name": "claimantResponsePeriod",
          "type": "uint256"
        }
      ],
      "name": "SetClaimantResponsePeriod",
      "type": "event"
    },
    {
      "anonymous": false,
      "inputs": [
        {
          "indexed": false,
          "internalType": "uint256",
          "name": "mediatorResponsePeriod",
          "type": "uint256"
        }
      ],
      "name": "SetMediatorResponsePeriod",
      "type": "event"
    },
    {
      "anonymous": false,
      "inputs": [
        {
          "indexed": true,
          "internalType": "address",
          "name": "account",
          "type": "address"
        },
        {
          "indexed": false,
          "internalType": "uint256",
          "name": "period",
          "type": "uint256"
        },
        {
          "indexed": false,
          "internalType": "uint256",
          "name": "amount",
          "type": "uint256"
        },
        {
          "indexed": false,
          "internalType": "address",
          "name": "sender",
          "type": "address"
        }
      ],
      "name": "SetQuota",
      "type": "event"
    },
    {
      "anonymous": false,
      "inputs": [
        {
          "indexed": true,
          "internalType": "uint256",
          "name": "claimIndex",
          "type": "uint256"
        },
        {
          "indexed": true,
          "internalType": "address",
          "name": "sender",
          "type": "address"
        },
        {
          "indexed": false,
          "internalType": "string",
          "name": "evidence",
          "type": "string"
        }
      ],
      "name": "SubmittedEvidenceToKlerosArbitrator",
      "type": "event"
    },
    {
      "anonymous": false,
      "inputs": [
        {
          "indexed": true,
          "internalType": "uint256",
          "name": "claimIndex",
          "type": "uint256"
        },
        {
          "indexed": true,
          "internalType": "address",
          "name": "claimant",
          "type": "address"
        }
      ],
      "name": "TimedOutClaim",
      "type": "event"
    },
    {
      "inputs": [
        {
          "internalType": "uint256",
          "name": "claimIndex",
          "type": "uint256"
        }
      ],
      "name": "acceptClaim",
      "outputs": [],
      "stateMutability": "nonpayable",
      "type": "function"
    },
    {
      "inputs": [
        {
          "internalType": "uint256",
          "name": "claimIndex",
          "type": "uint256"
        }
      ],
      "name": "acceptSettlement",
      "outputs": [],
      "stateMutability": "nonpayable",
      "type": "function"
    },
    {
      "inputs": [],
      "name": "accessControlRegistry",
      "outputs": [
        {
          "internalType": "address",
          "name": "",
          "type": "address"
        }
      ],
      "stateMutability": "view",
      "type": "function"
    },
    {
      "inputs": [
        {
          "internalType": "address",
          "name": "",
          "type": "address"
        },
        {
          "internalType": "uint256",
          "name": "",
          "type": "uint256"
        }
      ],
      "name": "accountToAccumulatedQuotaUsageCheckpoints",
      "outputs": [
        {
          "internalType": "uint256",
          "name": "fromTimestamp",
          "type": "uint256"
        },
        {
          "internalType": "uint256",
          "name": "value",
          "type": "uint256"
        }
      ],
      "stateMutability": "view",
      "type": "function"
    },
    {
      "inputs": [
        {
          "internalType": "address",
          "name": "",
          "type": "address"
        }
      ],
      "name": "accountToQuota",
      "outputs": [
        {
          "internalType": "uint256",
          "name": "period",
          "type": "uint256"
        },
        {
          "internalType": "uint256",
          "name": "amount",
          "type": "uint256"
        }
      ],
      "stateMutability": "view",
      "type": "function"
    },
    {
      "inputs": [],
      "name": "adminRole",
      "outputs": [
        {
          "internalType": "bytes32",
          "name": "",
          "type": "bytes32"
        }
      ],
      "stateMutability": "view",
      "type": "function"
    },
    {
      "inputs": [],
      "name": "adminRoleDescription",
      "outputs": [
        {
          "internalType": "string",
          "name": "",
          "type": "string"
        }
      ],
      "stateMutability": "view",
      "type": "function"
    },
    {
      "inputs": [],
      "name": "api3Pool",
      "outputs": [
        {
          "internalType": "address",
          "name": "",
          "type": "address"
        }
      ],
      "stateMutability": "view",
      "type": "function"
    },
    {
      "inputs": [
        {
          "internalType": "uint256",
          "name": "claimIndex",
          "type": "uint256"
        },
        {
          "internalType": "uint256",
          "name": "klerosArbitratorDisputeId",
          "type": "uint256"
        }
      ],
      "name": "appealKlerosArbitratorDecision",
      "outputs": [],
      "stateMutability": "payable",
      "type": "function"
    },
    {
      "inputs": [],
      "name": "arbitratorRole",
      "outputs": [
        {
          "internalType": "bytes32",
          "name": "",
          "type": "bytes32"
        }
      ],
      "stateMutability": "view",
      "type": "function"
    },
    {
      "inputs": [
        {
          "internalType": "address",
          "name": "",
          "type": "address"
        }
      ],
      "name": "arbitratorToResponsePeriod",
      "outputs": [
        {
          "internalType": "uint256",
          "name": "",
          "type": "uint256"
        }
      ],
      "stateMutability": "view",
      "type": "function"
    },
    {
      "inputs": [],
      "name": "claimCount",
      "outputs": [
        {
          "internalType": "uint256",
          "name": "",
          "type": "uint256"
        }
      ],
      "stateMutability": "view",
      "type": "function"
    },
    {
      "inputs": [
        {
          "internalType": "uint256",
          "name": "",
          "type": "uint256"
        }
      ],
      "name": "claimIndexToArbitrator",
      "outputs": [
        {
          "internalType": "address",
          "name": "",
          "type": "address"
        }
      ],
      "stateMutability": "view",
      "type": "function"
    },
    {
      "inputs": [
        {
          "internalType": "uint256",
          "name": "",
          "type": "uint256"
        }
      ],
      "name": "claimIndexToProposedSettlementAmount",
      "outputs": [
        {
          "internalType": "uint256",
          "name": "",
          "type": "uint256"
        }
      ],
      "stateMutability": "view",
      "type": "function"
    },
    {
      "inputs": [],
      "name": "claimantResponsePeriod",
      "outputs": [
        {
          "internalType": "uint256",
          "name": "",
          "type": "uint256"
        }
      ],
      "stateMutability": "view",
      "type": "function"
    },
    {
      "inputs": [
        {
          "internalType": "uint256",
          "name": "",
          "type": "uint256"
        }
      ],
      "name": "claims",
      "outputs": [
        {
          "internalType": "address",
          "name": "claimant",
          "type": "address"
        },
        {
          "internalType": "address",
          "name": "beneficiary",
          "type": "address"
        },
        {
          "internalType": "uint256",
          "name": "amount",
          "type": "uint256"
        },
        {
          "internalType": "string",
          "name": "evidence",
          "type": "string"
        },
        {
          "internalType": "uint256",
          "name": "updateTime",
          "type": "uint256"
        },
        {
          "internalType": "enum IClaimsManager.ClaimStatus",
          "name": "status",
          "type": "uint8"
        }
      ],
      "stateMutability": "view",
      "type": "function"
    },
    {
      "inputs": [
        {
          "internalType": "address",
          "name": "beneficiary",
          "type": "address"
        },
        {
          "internalType": "uint256",
          "name": "coverageAmount",
          "type": "uint256"
        },
        {
          "internalType": "uint256",
          "name": "startTime",
          "type": "uint256"
        },
        {
          "internalType": "uint256",
          "name": "endTime",
          "type": "uint256"
        },
        {
          "internalType": "string",
          "name": "policy",
          "type": "string"
        },
        {
          "internalType": "uint256",
          "name": "claimAmount",
          "type": "uint256"
        },
        {
          "internalType": "string",
          "name": "evidence",
          "type": "string"
        }
      ],
      "name": "createClaim",
      "outputs": [
        {
          "internalType": "uint256",
          "name": "claimIndex",
          "type": "uint256"
        }
      ],
      "stateMutability": "nonpayable",
      "type": "function"
    },
    {
      "inputs": [
        {
          "internalType": "uint256",
          "name": "claimIndex",
          "type": "uint256"
        },
        {
          "internalType": "address",
          "name": "arbitrator",
          "type": "address"
        }
      ],
      "name": "createDispute",
      "outputs": [],
      "stateMutability": "nonpayable",
      "type": "function"
    },
    {
      "inputs": [
        {
          "internalType": "uint256",
          "name": "claimIndex",
          "type": "uint256"
        }
      ],
      "name": "createDisputeWithKlerosArbitrator",
      "outputs": [],
      "stateMutability": "payable",
      "type": "function"
    },
    {
      "inputs": [
        {
          "internalType": "address",
          "name": "claimant",
          "type": "address"
        },
        {
          "internalType": "address",
          "name": "beneficiary",
          "type": "address"
        },
        {
          "internalType": "uint256",
          "name": "coverageAmount",
          "type": "uint256"
        },
        {
          "internalType": "uint256",
          "name": "startTime",
          "type": "uint256"
        },
        {
          "internalType": "uint256",
          "name": "endTime",
          "type": "uint256"
        },
        {
          "internalType": "string",
          "name": "policy",
          "type": "string"
        }
      ],
      "name": "createPolicy",
      "outputs": [
        {
          "internalType": "bytes32",
          "name": "policyHash",
          "type": "bytes32"
        }
      ],
      "stateMutability": "nonpayable",
      "type": "function"
    },
    {
      "inputs": [
        {
          "internalType": "address",
          "name": "account",
          "type": "address"
        }
      ],
      "name": "getQuotaUsage",
      "outputs": [
        {
          "internalType": "uint256",
          "name": "",
          "type": "uint256"
        }
      ],
      "stateMutability": "view",
      "type": "function"
    },
    {
      "inputs": [
        {
          "internalType": "address",
          "name": "account",
          "type": "address"
        }
      ],
      "name": "hasArbitratorRole",
      "outputs": [
        {
          "internalType": "bool",
          "name": "",
          "type": "bool"
        }
      ],
      "stateMutability": "view",
      "type": "function"
    },
    {
      "inputs": [
        {
          "internalType": "address",
          "name": "account",
          "type": "address"
        }
      ],
      "name": "hasMediatorRoleOrIsManager",
      "outputs": [
        {
          "internalType": "bool",
          "name": "",
          "type": "bool"
        }
      ],
      "stateMutability": "view",
      "type": "function"
    },
    {
      "inputs": [
        {
          "internalType": "address",
          "name": "account",
          "type": "address"
        }
      ],
      "name": "hasPolicyCreatorRoleOrIsManager",
      "outputs": [
        {
          "internalType": "bool",
          "name": "",
          "type": "bool"
        }
      ],
      "stateMutability": "view",
      "type": "function"
    },
    {
      "inputs": [],
      "name": "klerosArbitrator",
      "outputs": [
        {
          "internalType": "contract IArbitrator",
          "name": "",
          "type": "address"
        }
      ],
      "stateMutability": "view",
      "type": "function"
    },
    {
      "inputs": [
        {
          "internalType": "uint256",
          "name": "",
          "type": "uint256"
        }
      ],
      "name": "klerosArbitratorDisputeIdToClaimIndex",
      "outputs": [
        {
          "internalType": "uint256",
          "name": "",
          "type": "uint256"
        }
      ],
      "stateMutability": "view",
      "type": "function"
    },
    {
      "inputs": [],
      "name": "klerosArbitratorExtraData",
      "outputs": [
        {
          "internalType": "bytes",
          "name": "",
          "type": "bytes"
        }
      ],
      "stateMutability": "view",
      "type": "function"
    },
    {
      "inputs": [],
      "name": "manager",
      "outputs": [
        {
          "internalType": "address",
          "name": "",
          "type": "address"
        }
      ],
      "stateMutability": "view",
      "type": "function"
    },
    {
      "inputs": [],
      "name": "mediatorResponsePeriod",
      "outputs": [
        {
          "internalType": "uint256",
          "name": "",
          "type": "uint256"
        }
      ],
      "stateMutability": "view",
      "type": "function"
    },
    {
      "inputs": [],
      "name": "mediatorRole",
      "outputs": [
        {
          "internalType": "bytes32",
          "name": "",
          "type": "bytes32"
        }
      ],
      "stateMutability": "view",
      "type": "function"
    },
    {
      "inputs": [
        {
          "internalType": "bytes[]",
          "name": "data",
          "type": "bytes[]"
        }
      ],
      "name": "multicall",
      "outputs": [
        {
          "internalType": "bytes[]",
          "name": "results",
          "type": "bytes[]"
        }
      ],
      "stateMutability": "nonpayable",
      "type": "function"
    },
    {
      "inputs": [],
      "name": "policyCreatorRole",
      "outputs": [
        {
          "internalType": "bytes32",
          "name": "",
          "type": "bytes32"
        }
      ],
      "stateMutability": "view",
      "type": "function"
    },
    {
      "inputs": [
        {
          "internalType": "bytes32",
          "name": "",
          "type": "bytes32"
        }
      ],
      "name": "policyWithHashExists",
      "outputs": [
        {
          "internalType": "bool",
          "name": "",
          "type": "bool"
        }
      ],
      "stateMutability": "view",
      "type": "function"
    },
    {
      "inputs": [
        {
          "internalType": "uint256",
          "name": "claimIndex",
          "type": "uint256"
        },
        {
          "internalType": "uint256",
          "name": "amount",
          "type": "uint256"
        }
      ],
      "name": "proposeSettlement",
      "outputs": [],
      "stateMutability": "nonpayable",
      "type": "function"
    },
    {
      "inputs": [
        {
          "internalType": "address",
          "name": "account",
          "type": "address"
        }
      ],
      "name": "resetQuota",
      "outputs": [],
      "stateMutability": "nonpayable",
      "type": "function"
    },
    {
      "inputs": [
        {
          "internalType": "uint256",
          "name": "claimIndex",
          "type": "uint256"
        },
        {
          "internalType": "enum IClaimsManager.ArbitratorDecision",
          "name": "result",
          "type": "uint8"
        }
      ],
      "name": "resolveDispute",
      "outputs": [],
      "stateMutability": "nonpayable",
      "type": "function"
    },
    {
      "inputs": [
        {
          "internalType": "uint256",
          "name": "disputeId",
          "type": "uint256"
        },
        {
          "internalType": "uint256",
          "name": "ruling",
          "type": "uint256"
        }
      ],
      "name": "rule",
      "outputs": [],
      "stateMutability": "nonpayable",
      "type": "function"
    },
    {
      "inputs": [
        {
          "internalType": "address",
          "name": "_api3Pool",
          "type": "address"
        }
      ],
      "name": "setApi3Pool",
      "outputs": [],
      "stateMutability": "nonpayable",
      "type": "function"
    },
    {
      "inputs": [
        {
          "internalType": "address",
          "name": "arbitrator",
          "type": "address"
        },
        {
          "internalType": "uint256",
          "name": "arbitratorResponsePeriod",
          "type": "uint256"
        }
      ],
      "name": "setArbitratorResponsePeriod",
      "outputs": [],
      "stateMutability": "nonpayable",
      "type": "function"
    },
    {
      "inputs": [
        {
          "internalType": "uint256",
          "name": "_claimantResponsePeriod",
          "type": "uint256"
        }
      ],
      "name": "setClaimantResponsePeriod",
      "outputs": [],
      "stateMutability": "nonpayable",
      "type": "function"
    },
    {
      "inputs": [
        {
          "internalType": "uint256",
          "name": "_mediatorResponsePeriod",
          "type": "uint256"
        }
      ],
      "name": "setMediatorResponsePeriod",
      "outputs": [],
      "stateMutability": "nonpayable",
      "type": "function"
    },
    {
      "inputs": [
        {
          "internalType": "address",
          "name": "account",
          "type": "address"
        },
        {
          "internalType": "uint256",
          "name": "period",
          "type": "uint256"
        },
        {
          "internalType": "uint256",
          "name": "amount",
          "type": "uint256"
        }
      ],
      "name": "setQuota",
      "outputs": [],
      "stateMutability": "nonpayable",
      "type": "function"
    },
    {
      "inputs": [
        {
          "internalType": "uint256",
          "name": "claimIndex",
          "type": "uint256"
        },
        {
          "internalType": "string",
          "name": "evidence",
          "type": "string"
        }
      ],
      "name": "submitEvidenceToKlerosArbitrator",
      "outputs": [],
      "stateMutability": "nonpayable",
      "type": "function"
    },
    {
      "inputs": [
        {
          "internalType": "uint256",
          "name": "claimIndex",
          "type": "uint256"
        }
      ],
      "name": "timeOutClaim",
      "outputs": [],
      "stateMutability": "nonpayable",
      "type": "function"
    }
  ],
  "bytecode": "0x61018060405260006008553480156200001757600080fd5b506040516200501f3803806200501f8339810160408190526200003a9162000873565b8888888888888585858282816001600160a01b038116620000955760405162461bcd60e51b815260206004820152601060248201526f4143522061646472657373207a65726f60801b60448201526064015b60405180910390fd5b6001600160a01b03166080528051620000f15760405162461bcd60e51b815260206004820152601c60248201527f41646d696e20726f6c65206465736372697074696f6e20656d7074790000000060448201526064016200008c565b805162000106906000906020840190620006c1565b50806040516020016200011a91906200095e565b60408051601f19818403018152919052805160209091012060a05250506001600160a01b0381166200018f5760405162461bcd60e51b815260206004820152601460248201527f4d616e616765722061646472657373207a65726f00000000000000000000000060448201526064016200008c565b6001600160a01b03811660c052620001a78162000362565b60e08190526040516d2837b634b1bc9031b932b0ba37b960911b6020820152620001f79450909250602e0190505b60405160208183030381529060405280519060200120620003dc60201b60201c565b6101005260e0516040516726b2b234b0ba37b960c11b6020820152620002219190602801620001d5565b6101205260e0516040516920b93134ba3930ba37b960b11b60208201526200024d9190602a01620001d5565b610140526200025c8362000408565b6200026782620004b5565b62000272816200053a565b50505050506001600160a01b03841615159050620002d35760405162461bcd60e51b815260206004820152601e60248201527f4b6c65726f732061726269747261746f722061646472657373207a65726f000060448201526064016200008c565b8151620003235760405162461bcd60e51b815260206004820152601b60248201527f41726269747261746f72206578747261206461746120656d707479000000000060448201526064016200008c565b6001600160a01b0383166101605281516200034690600c906020850190620006c1565b50620003538382620005bf565b505050505050505050620009b9565b6000620003d6620003a7836040516001600160601b0319606083901b166020820152600090603401604051602081830303815290604052805190602001209050919050565b60a051604080516020808201949094528082019290925280518083038201815260609092019052805191012090565b92915050565b604080516020808201949094528082019290925280518083038201815260609092019052805191012090565b6001600160a01b038116620004605760405162461bcd60e51b815260206004820152601560248201527f41706933506f6f6c2061646472657373207a65726f000000000000000000000060448201526064016200008c565b600180546001600160a01b0319166001600160a01b0383169081179091556040519081527fcfc65ac438a1d87c13d90525ec526e4c8d97e0c51b188c401a6fa6e32a6e99a1906020015b60405180910390a150565b80620005045760405162461bcd60e51b815260206004820152601d60248201527f4d65646961746f7220726573706f6e736520706572696f64207a65726f00000060448201526064016200008c565b60028190556040518181527f2a935b3623b7502b1c232465ec66ced2e9862c415aded2a4fdf78973939be3c990602001620004aa565b80620005895760405162461bcd60e51b815260206004820152601d60248201527f436c61696d616e7420726573706f6e736520706572696f64207a65726f00000060448201526064016200008c565b60038190556040518181527f14aadc0eb5e23e0beac6698111aeace92a48719e61b97d23309fe2ad5532da0f90602001620004aa565b6001600160a01b038216620006175760405162461bcd60e51b815260206004820152601760248201527f41726269747261746f722061646472657373207a65726f00000000000000000060448201526064016200008c565b80620006665760405162461bcd60e51b815260206004820152601f60248201527f41726269747261746f7220726573706f6e736520706572696f64207a65726f0060448201526064016200008c565b6001600160a01b038216600081815260046020908152604091829020849055815184815233918101919091527f2100b6d234df280c150d5b268fcefe4152b3786973a733b33c544d5f33f8adfc910160405180910390a25050565b828054620006cf906200097c565b90600052602060002090601f016020900481019282620006f357600085556200073e565b82601f106200070e57805160ff19168380011785556200073e565b828001600101855582156200073e579182015b828111156200073e57825182559160200191906001019062000721565b506200074c92915062000750565b5090565b5b808211156200074c576000815560010162000751565b80516001600160a01b03811681146200077f57600080fd5b919050565b634e487b7160e01b600052604160045260246000fd5b60005b83811015620007b75781810151838201526020016200079d565b83811115620007c7576000848401525b50505050565b60006001600160401b0380841115620007ea57620007ea62000784565b604051601f8501601f19908116603f0116810190828211818310171562000815576200081562000784565b816040528093508581528686860111156200082f57600080fd5b6200083f8660208301876200079a565b5050509392505050565b600082601f8301126200085b57600080fd5b6200086c83835160208501620007cd565b9392505050565b60008060008060008060008060006101208a8c0312156200089357600080fd5b6200089e8a62000767565b60208b01519099506001600160401b0380821115620008bc57600080fd5b818c0191508c601f830112620008d157600080fd5b620008e28d835160208501620007cd565b9950620008f260408d0162000767565b98506200090260608d0162000767565b975060808c0151965060a08c015195506200092060c08d0162000767565b945060e08c01519150808211156200093757600080fd5b50620009468c828d0162000849565b9250506101008a015190509295985092959850929598565b60008251620009728184602087016200079a565b9190910192915050565b600181811c908216806200099157607f821691505b60208210811415620009b357634e487b7160e01b600052602260045260246000fd5b50919050565b60805160a05160c05160e0516101005161012051610140516101605161450e62000b11600039600081816106be01528181610c4401528181610d480152818161166f01528181611eec015281816125e30152818161260b01528181612707015281816127600152818161291601528181612a4c0152612ac50152600081816103d10152611e3101526000818161081a0152610f4c01526000818161050a01526128240152600081816102fd01528181610af001528181610dfa0152818161104401528181611b3d0152611f9301526000818161059401528181610ab101528181610dbb01528181610f0e0152818161100501528181611afe01528181611f540152818161222001526127e60152600050506000818161040501528181610b1c01528181610e2601528181610f820152818161107001528181611b6901528181611e6a01528181611fbf015261285a015261450e6000f3fe6080604052600436106102e65760003560e01c80638163aff311610184578063aaac922c116100d6578063d8fa1f481161008a578063eaed212c11610064578063eaed212c14610905578063f58c8a9714610932578063fe571b6f1461096857600080fd5b8063d8fa1f48146108b2578063e2dcb0a0146108d2578063e55e4211146108e557600080fd5b8063b2b96792116100bb578063b2b9679214610869578063c1697bc714610889578063ce5320f91461089f57600080fd5b8063aaac922c14610808578063ac9650d81461083c57600080fd5b8063974e527a11610138578063a313352111610112578063a313352114610796578063a888c2cd146107b6578063a90081d7146107e857600080fd5b8063974e527a146107365780639c34f7c814610756578063a250bb281461077657600080fd5b80638da4d3c9116101695780638da4d3c9146106e057806393ee2678146106f657806394a4889c1461071657600080fd5b80638163aff31461068c5780638c5aa9c1146106ac57600080fd5b80633c0c5d0c1161023d5780634c8f1d8d116101f15780636fe2a2d7116101cb5780636fe2a2d7146106185780637668524a146106385780637696cc1b1461066c57600080fd5b80634c8f1d8d146105b657806354ba44dd146105cb57806356023c2d146105eb57600080fd5b80634725ee2c116102225780634725ee2c1461054c5780634766464a1461056c578063481c6a751461058257600080fd5b80633c0c5d0c146104f857806342c8de721461052c57600080fd5b80631ce9ae071161029f578063302a909411610279578063302a909414610483578063311a6c56146104b857806331dbac57146104d857600080fd5b80631ce9ae07146103f35780632438b26a1461043f57806325788ef11461046157600080fd5b806303dd880c116102d057806303dd880c146103725780630d0a5e8c1461039f57806314ebc086146103bf57600080fd5b80629f2f3c146102eb578063028ead1114610332575b600080fd5b3480156102f757600080fd5b5061031f7f000000000000000000000000000000000000000000000000000000000000000081565b6040519081526020015b60405180910390f35b34801561033e57600080fd5b5061036261034d366004613c60565b60076020526000908152604090205460ff1681565b6040519015158152602001610329565b34801561037e57600080fd5b5061031f61038d366004613c60565b600d6020526000908152604090205481565b3480156103ab57600080fd5b5061031f6103ba366004613c95565b610988565b3480156103cb57600080fd5b5061031f7f000000000000000000000000000000000000000000000000000000000000000081565b3480156103ff57600080fd5b506104277f000000000000000000000000000000000000000000000000000000000000000081565b6040516001600160a01b039091168152602001610329565b34801561044b57600080fd5b50610454610a21565b6040516103299190613d08565b34801561046d57600080fd5b5061048161047c366004613d1b565b610aaf565b005b34801561048f57600080fd5b506104a361049e366004613d1b565b610bfd565b60408051928352602083019190915201610329565b3480156104c457600080fd5b506104816104d3366004613d45565b610c39565b3480156104e457600080fd5b506104816104f3366004613c60565b610db9565b34801561050457600080fd5b5061031f7f000000000000000000000000000000000000000000000000000000000000000081565b34801561053857600080fd5b50610362610547366004613c95565b610f00565b34801561055857600080fd5b50610481610567366004613d67565b611003565b34801561057857600080fd5b5061031f60025481565b34801561058e57600080fd5b506104277f000000000000000000000000000000000000000000000000000000000000000081565b3480156105c257600080fd5b506104546112ab565b3480156105d757600080fd5b5061031f6105e6366004613de3565b6112b8565b3480156105f757600080fd5b5061031f610606366004613c60565b600a6020526000908152604090205481565b34801561062457600080fd5b50600154610427906001600160a01b031681565b34801561064457600080fd5b506104a3610653366004613c95565b6006602052600090815260409020805460019091015482565b34801561067857600080fd5b50610481610687366004613e8c565b61166d565b34801561069857600080fd5b506104816106a7366004613c60565b6116f9565b3480156106b857600080fd5b506104277f000000000000000000000000000000000000000000000000000000000000000081565b3480156106ec57600080fd5b5061031f60085481565b34801561070257600080fd5b50610481610711366004613c60565b6118fc565b34801561072257600080fd5b50610481610731366004613c60565b611afc565b34801561074257600080fd5b50610481610751366004613c60565b611c40565b34801561076257600080fd5b50610362610771366004613c95565b611e22565b34801561078257600080fd5b50610481610791366004613eb8565b611e9b565b3480156107a257600080fd5b506104816107b1366004613c95565b611f52565b3480156107c257600080fd5b506107d66107d1366004613c60565b61214f565b60405161032996959493929190613f1a565b3480156107f457600080fd5b50610481610803366004613c95565b61221e565b34801561081457600080fd5b5061031f7f000000000000000000000000000000000000000000000000000000000000000081565b34801561084857600080fd5b5061085c610857366004613f83565b61229f565b6040516103299190613ff8565b34801561087557600080fd5b50610481610884366004613d45565b612394565b34801561089557600080fd5b5061031f60035481565b6104816108ad366004613c60565b6125dd565b3480156108be57600080fd5b506103626108cd366004613c95565b6127d8565b6104816108e0366004613d45565b612889565b3480156108f157600080fd5b5061048161090036600461405a565b612aba565b34801561091157600080fd5b5061031f610920366004613c95565b60046020526000908152604090205481565b34801561093e57600080fd5b5061042761094d366004613c60565b600b602052600090815260409020546001600160a01b031681565b34801561097457600080fd5b5061031f61098336600461408e565b612b3d565b6001600160a01b038116600090815260056020526040812080548290156109de57815482906109b990600190614126565b815481106109c9576109c961413d565b90600052602060002090600202016001015490505b6001600160a01b038416600090815260066020526040812054610a0c908490610a079042614126565b612e1e565b9050610a188183614126565b95945050505050565b600c8054610a2e90614153565b80601f0160208091040260200160405190810160405280929190818152602001828054610a5a90614153565b8015610aa75780601f10610a7c57610100808354040283529160200191610aa7565b820191906000526020600020905b815481529060010190602001808311610a8a57829003601f168201915b505050505081565b7f00000000000000000000000000000000000000000000000000000000000000006001600160a01b0316331480610b9e5750604051632474521560e21b81527f000000000000000000000000000000000000000000000000000000000000000060048201523360248201527f00000000000000000000000000000000000000000000000000000000000000006001600160a01b0316906391d148549060440160206040518083038186803b158015610b6657600080fd5b505afa158015610b7a573d6000803e3d6000fd5b505050506040513d601f19601f82011682018060405250810190610b9e919061418e565b610bef5760405162461bcd60e51b815260206004820152601a60248201527f53656e6465722063616e6e6f742061646d696e6973747261746500000000000060448201526064015b60405180910390fd5b610bf98282612f8b565b5050565b60056020528160005260406000208181548110610c1957600080fd5b600091825260209091206002909102018054600190910154909250905082565b336001600160a01b037f00000000000000000000000000000000000000000000000000000000000000001614610cb15760405162461bcd60e51b815260206004820152601c60248201527f53656e646572206e6f74204b6c65726f732061726269747261746f72000000006044820152606401610be6565b6000828152600d602052604081205490821580610cce5750826001145b15610cdb57506000610d45565b8260021415610cec57506001610d45565b8260031415610cfd57506002610d45565b60405162461bcd60e51b815260206004820152601560248201527f496e76616c69642072756c696e67206f7074696f6e00000000000000000000006044820152606401610be6565b837f00000000000000000000000000000000000000000000000000000000000000006001600160a01b03167f394027a5fa6e098a1191094d1719d6929b9abc535fcc0c8f448d6a4e7562227685604051610da191815260200190565b60405180910390a3610db38282613089565b50505050565b7f00000000000000000000000000000000000000000000000000000000000000006001600160a01b0316331480610ea85750604051632474521560e21b81527f000000000000000000000000000000000000000000000000000000000000000060048201523360248201527f00000000000000000000000000000000000000000000000000000000000000006001600160a01b0316906391d148549060440160206040518083038186803b158015610e7057600080fd5b505afa158015610e84573d6000803e3d6000fd5b505050506040513d601f19601f82011682018060405250810190610ea8919061418e565b610ef45760405162461bcd60e51b815260206004820152601a60248201527f53656e6465722063616e6e6f742061646d696e697374726174650000000000006044820152606401610be6565b610efd816134a2565b50565b6000816001600160a01b03167f00000000000000000000000000000000000000000000000000000000000000006001600160a01b03161480610ffd5750604051632474521560e21b81527f000000000000000000000000000000000000000000000000000000000000000060048201526001600160a01b0383811660248301527f000000000000000000000000000000000000000000000000000000000000000016906391d14854906044015b60206040518083038186803b158015610fc557600080fd5b505afa158015610fd9573d6000803e3d6000fd5b505050506040513d601f19601f82011682018060405250810190610ffd919061418e565b92915050565b7f00000000000000000000000000000000000000000000000000000000000000006001600160a01b03163314806110f25750604051632474521560e21b81527f000000000000000000000000000000000000000000000000000000000000000060048201523360248201527f00000000000000000000000000000000000000000000000000000000000000006001600160a01b0316906391d148549060440160206040518083038186803b1580156110ba57600080fd5b505afa1580156110ce573d6000803e3d6000fd5b505050506040513d601f19601f820116820180604052508101906110f2919061418e565b61113e5760405162461bcd60e51b815260206004820152601a60248201527f53656e6465722063616e6e6f742061646d696e697374726174650000000000006044820152606401610be6565b6001600160a01b0383166111945760405162461bcd60e51b815260206004820152601460248201527f4163636f756e742061646472657373207a65726f0000000000000000000000006044820152606401610be6565b816111e15760405162461bcd60e51b815260206004820152601160248201527f51756f746120706572696f64207a65726f0000000000000000000000000000006044820152606401610be6565b8061122e5760405162461bcd60e51b815260206004820152601160248201527f51756f746120616d6f756e74207a65726f0000000000000000000000000000006044820152606401610be6565b60408051808201825283815260208082018481526001600160a01b03871660008181526006845285902093518455905160019093019290925582518581529081018490523381840152915190917fc7e085b16eac3e6c38159caf61d714f1622ab55fcc3ba064369b12986e484a72919081900360600190a2505050565b60008054610a2e90614153565b600080338b8b8b8b8b8b6040516020016112d897969594939291906141b0565b60408051601f1981840301815291815281516020928301206000818152600790935291205490915060ff1661134f5760405162461bcd60e51b815260206004820152601560248201527f506f6c69637920646f6573206e6f7420657869737400000000000000000000006044820152606401610be6565b8461139c5760405162461bcd60e51b815260206004820152601160248201527f436c61696d20616d6f756e74207a65726f0000000000000000000000000000006044820152606401610be6565b826113e95760405162461bcd60e51b815260206004820152601660248201527f45766964656e6365206164647265737320656d707479000000000000000000006044820152606401610be6565b884210156114395760405162461bcd60e51b815260206004820152601560248201527f506f6c696379206e6f74206163746976652079657400000000000000000000006044820152606401610be6565b874211156114895760405162461bcd60e51b815260206004820152600e60248201527f506f6c69637920657870697265640000000000000000000000000000000000006044820152606401610be6565b898511156114d95760405162461bcd60e51b815260206004820152601a60248201527f436c61696d206c6172676572207468616e20636f7665726167650000000000006044820152606401610be6565b600880549060006114e983614202565b9190505591506040518060c00160405280336001600160a01b031681526020018c6001600160a01b0316815260200186815260200185858080601f01602080910402602001604051908101604052809392919081815260200183838082843760009201919091525050509082525042602082015260400160019052600083815260096020908152604091829020835181546001600160a01b0391821673ffffffffffffffffffffffffffffffffffffffff1991821617835585840151600184018054919093169116179055918301516002830155606083015180516115d49260038501920190613bc7565b506080820151600482015560a082015160058201805460ff1916600183600981111561160257611602613f04565b021790555090505080336001600160a01b0316837f52d84cd5f2f2bd072a480ab80199ea5a2e41ab41420d2b2c2a3b295871e3e6328e8e8e8e8e8e8e8e8e426040516116579a99989796959493929190614246565b60405180910390a4509998505050505050505050565b7f00000000000000000000000000000000000000000000000000000000000000006001600160a01b0316816001600160a01b031614156116ef5760405162461bcd60e51b815260206004820152601f60248201527f557365204b6c65726f732061726269747261746f7220696e74657266616365006044820152606401610be6565b610bf9828261352b565b6000818152600960205260409020600581015460ff16600181600981111561172357611723613f04565b141561179c5742600354600254846004015461173f91906142af565b61174991906142af565b11156117975760405162461bcd60e51b815260206004820152601a60248201527f4177616974696e6720636c61696d616e7420726573706f6e73650000000000006044820152606401610be6565b6118af565b60038160098111156117b0576117b0613f04565b14156117c95742600354836004015461174991906142af565b60058160098111156117dd576117dd613f04565b1415611867576000838152600b60209081526040808320546001600160a01b0316835260049182905290912054908301544291611819916142af565b11156117975760405162461bcd60e51b815260206004820152601c60248201527f4177616974696e672061726269747261746f7220726573706f6e7365000000006044820152606401610be6565b60405162461bcd60e51b815260206004820152601960248201527f436c61696d2063616e6e6f742062652074696d6564206f7574000000000000006044820152606401610be6565b60058201805460ff1916600917905581546040516001600160a01b039091169084907f3efd54611bd3bdb1c90f2de746ce07d3f310c0a7bb628965c5a194fadea8aafd90600090a3505050565b600081815260096020526040902080546001600160a01b03163381146119645760405162461bcd60e51b815260206004820152601360248201527f53656e646572206e6f7420636c61696d616e74000000000000000000000000006044820152606401610be6565b6003600583015460ff16600981111561197f5761197f613f04565b146119cc5760405162461bcd60e51b815260206004820152601760248201527f4e6f20736574746c656d656e7420746f206163636570740000000000000000006044820152606401610be6565b4260035483600401546119df91906142af565b11611a2c5760405162461bcd60e51b815260206004820152601d60248201527f546f6f206c61746520746f2061636365707420736574746c656d656e740000006044820152606401610be6565b60058201805460ff191660041790556000838152600a60209081526040918290205491518281526001600160a01b0384169186917f9fcb8c9c70780f0985c1db1a7fb9b39569aedbd5e5e14babe7deb3870cc69253910160405180910390a36001805490840154604051632cacc0cb60e01b81526001600160a01b03918216600482015260248101849052911690632cacc0cb906044015b600060405180830381600087803b158015611ade57600080fd5b505af1158015611af2573d6000803e3d6000fd5b5050505050505050565b7f00000000000000000000000000000000000000000000000000000000000000006001600160a01b0316331480611beb5750604051632474521560e21b81527f000000000000000000000000000000000000000000000000000000000000000060048201523360248201527f00000000000000000000000000000000000000000000000000000000000000006001600160a01b0316906391d148549060440160206040518083038186803b158015611bb357600080fd5b505afa158015611bc7573d6000803e3d6000fd5b505050506040513d601f19601f82011682018060405250810190611beb919061418e565b611c375760405162461bcd60e51b815260206004820152601a60248201527f53656e6465722063616e6e6f742061646d696e697374726174650000000000006044820152606401610be6565b610efd8161383e565b611c4933610f00565b611c955760405162461bcd60e51b815260206004820152601a60248201527f53656e6465722063616e6e6f742061636365707420636c61696d0000000000006044820152606401610be6565b60008181526009602052604090206001600582015460ff166009811115611cbe57611cbe613f04565b14611d0b5760405162461bcd60e51b815260206004820152601760248201527f436c61696d206973206e6f742061636365707461626c650000000000000000006044820152606401610be6565b426002548260040154611d1e91906142af565b11611d6b5760405162461bcd60e51b815260206004820152601860248201527f546f6f206c61746520746f2061636365707420636c61696d00000000000000006044820152606401610be6565b60058101805460ff19166002908117909155810154611d8b9033906138c0565b600181015460028201548254604080516001600160a01b03948516808252602082018590523382840152915191949092169186917f75dc6b85e515227eac30cec00bc063313b2dfed539fd4ff0254dc58b844300049181900360600190a3600154604051632cacc0cb60e01b81526001600160a01b0384811660048301526024820184905290911690632cacc0cb90604401611ac4565b604051632474521560e21b81527f000000000000000000000000000000000000000000000000000000000000000060048201526001600160a01b0382811660248301526000917f0000000000000000000000000000000000000000000000000000000000000000909116906391d1485490604401610fad565b336001600160a01b0316837f0dc84b5d0bd18e707aafa30714b6c681b9dddbeac1724c50756d35a6e72e000b8484604051611ed79291906142c7565b60405180910390a3336001600160a01b0316837f00000000000000000000000000000000000000000000000000000000000000006001600160a01b03167fdccf2f8b2cc26eafcd61905cba744cff4b81d14740725f6376390dc6298a6a3c8585604051611f459291906142c7565b60405180910390a4505050565b7f00000000000000000000000000000000000000000000000000000000000000006001600160a01b03163314806120415750604051632474521560e21b81527f000000000000000000000000000000000000000000000000000000000000000060048201523360248201527f00000000000000000000000000000000000000000000000000000000000000006001600160a01b0316906391d148549060440160206040518083038186803b15801561200957600080fd5b505afa15801561201d573d6000803e3d6000fd5b505050506040513d601f19601f82011682018060405250810190612041919061418e565b61208d5760405162461bcd60e51b815260206004820152601a60248201527f53656e6465722063616e6e6f742061646d696e697374726174650000000000006044820152606401610be6565b6001600160a01b0381166120e35760405162461bcd60e51b815260206004820152601460248201527f4163636f756e742061646472657373207a65726f0000000000000000000000006044820152606401610be6565b604080518082018252600080825260208083018281526001600160a01b0386168084526006835292859020935184555160019093019290925591513381527fc9b329d64e64bfbf91e7dcbafe6184465d6f7bd01bc04f9673990e973600640b910160405180910390a250565b60096020526000908152604090208054600182015460028301546003840180546001600160a01b03948516959490931693919261218b90614153565b80601f01602080910402602001604051908101604052809291908181526020018280546121b790614153565b80156122045780601f106121d957610100808354040283529160200191612204565b820191906000526020600020905b8154815290600101906020018083116121e757829003601f168201915b50505050600483015460059093015491929160ff16905086565b7f00000000000000000000000000000000000000000000000000000000000000006001600160a01b031633146122965760405162461bcd60e51b815260206004820152601260248201527f53656e646572206e6f74206d616e6167657200000000000000000000000000006044820152606401610be6565b610efd816139c6565b60608167ffffffffffffffff8111156122ba576122ba6142e3565b6040519080825280602002602001820160405280156122ed57816020015b60608152602001906001900390816122d85790505b50905060005b8281101561238d5761235d308585848181106123115761231161413d565b905060200281019061232391906142f9565b8080601f016020809104026020016040519081016040528093929190818152602001838380828437600092019190915250613a7792505050565b82828151811061236f5761236f61413d565b6020026020010181905250808061238590614202565b9150506122f3565b5092915050565b61239d33610f00565b6123e95760405162461bcd60e51b815260206004820181905260248201527f53656e6465722063616e6e6f742070726f706f736520736574746c656d656e746044820152606401610be6565b806124365760405162461bcd60e51b815260206004820152601660248201527f536574746c656d656e7420616d6f756e74207a65726f000000000000000000006044820152606401610be6565b60008281526009602052604090206001600582015460ff16600981111561245f5761245f613f04565b146124ac5760405162461bcd60e51b815260206004820152601760248201527f436c61696d206973206e6f7420736574746c6561626c650000000000000000006044820152606401610be6565b4260025482600401546124bf91906142af565b1161250c5760405162461bcd60e51b815260206004820152601e60248201527f546f6f206c61746520746f2070726f706f736520736574746c656d656e7400006044820152606401610be6565b8060020154821061255f5760405162461bcd60e51b815260206004820152601d60248201527f536574746c656d656e7420616d6f756e74206e6f7420736d616c6c65720000006044820152606401610be6565b60058101805460ff191660031790554260048201556000838152600a6020526040902082905561258f33836138c0565b8054604080518481523360208201526001600160a01b039092169185917fd86536d43eccb7ef71b83489a355310829fee4fd737949326570dd8163187d1691015b60405180910390a3505050565b612607817f000000000000000000000000000000000000000000000000000000000000000061352b565b60007f00000000000000000000000000000000000000000000000000000000000000006001600160a01b031663c13517e1346003600c6040518463ffffffff1660e01b815260040161265a9291906143e1565b6020604051808303818588803b15801561267357600080fd5b505af1158015612687573d6000803e3d6000fd5b50505050506040513d601f19601f820116820180604052508101906126ac91906143fa565b6000818152600d6020526040808220859055519192508291339185917f749c18c3c5e21f654d5d5988568435d9017e161f05383b82697f851fe5f596259190a460408051600081526020810184905282916001600160a01b037f000000000000000000000000000000000000000000000000000000000000000016917f74baab670a4015ab2f1b467c5252a96141a2573f2908e58a92081e80d3cfde3d910160405180910390a3336001600160a01b0316827f00000000000000000000000000000000000000000000000000000000000000006001600160a01b03167fdccf2f8b2cc26eafcd61905cba744cff4b81d14740725f6376390dc6298a6a3c600960008781526020019081526020016000206003016040516127cc9190614413565b60405180910390a45050565b6000816001600160a01b03167f00000000000000000000000000000000000000000000000000000000000000006001600160a01b03161480610ffd5750604051632474521560e21b81527f000000000000000000000000000000000000000000000000000000000000000060048201526001600160a01b0383811660248301527f000000000000000000000000000000000000000000000000000000000000000016906391d1485490604401610fad565b6000818152600d602052604090205482146128e65760405162461bcd60e51b815260206004820152601f60248201527f436c61696d20696e6465782d64697370757465204944206d69736d61746368006044820152606401610be6565b6040517ff23f16e60000000000000000000000000000000000000000000000000000000081526001600160a01b037f0000000000000000000000000000000000000000000000000000000000000000169063f23f16e69061294e908490600c906004016143e1565b60206040518083038186803b15801561296657600080fd5b505afa15801561297a573d6000803e3d6000fd5b505050506040513d601f19601f8201168201806040525081019061299e91906143fa565b3410156129ed5760405162461bcd60e51b815260206004820181905260248201527f56616c756520646f6573206e6f7420636f7665722061707065616c20636f73746044820152606401610be6565b6040518190339084907f92c7448b666c23e02c14923fd31159c33c72aecabdadb4b32014d58bcd6a5ff290600090a46040517f49912f880000000000000000000000000000000000000000000000000000000081526001600160a01b037f000000000000000000000000000000000000000000000000000000000000000016906349912f8890612a84908490600c906004016143e1565b600060405180830381600087803b158015612a9e57600080fd5b505af1158015612ab2573d6000803e3d6000fd5b505050505050565b336001600160a01b037f0000000000000000000000000000000000000000000000000000000000000000161415612b335760405162461bcd60e51b815260206004820152601f60248201527f557365204b6c65726f732061726269747261746f7220696e74657266616365006044820152606401610be6565b610bf98282613089565b6000612b48336127d8565b612b945760405162461bcd60e51b815260206004820152601b60248201527f53656e6465722063616e6e6f742063726561746520706f6c69637900000000006044820152606401610be6565b6001600160a01b038816612bea5760405162461bcd60e51b815260206004820152601560248201527f436c61696d616e742061646472657373207a65726f00000000000000000000006044820152606401610be6565b6001600160a01b038716612c405760405162461bcd60e51b815260206004820152601860248201527f42656e65666963696172792061646472657373207a65726f00000000000000006044820152606401610be6565b85612c8d5760405162461bcd60e51b815260206004820152601460248201527f436f76657261676520616d6f756e74207a65726f0000000000000000000000006044820152606401610be6565b84612cda5760405162461bcd60e51b815260206004820152600f60248201527f53746172742074696d65207a65726f00000000000000000000000000000000006044820152606401610be6565b848411612d295760405162461bcd60e51b815260206004820152601a60248201527f5374617274206e6f74206561726c696572207468616e20656e640000000000006044820152606401610be6565b81612d765760405162461bcd60e51b815260206004820152601460248201527f506f6c696379206164647265737320656d7074790000000000000000000000006044820152606401610be6565b87878787878787604051602001612d9397969594939291906141b0565b60408051601f19818403018152828252805160209182012060008181526007909252919020805460ff19166001179055915081906001600160a01b038a16907f4b0ddcbe6838877cbe105425b25579a172a64b3c8dad3b5242f65081f01db37290612e0b908b908b908b908b908b908b903390614426565b60405180910390a3979650505050505050565b8154600090612e2f57506000610ffd565b82548390612e3f90600190614126565b81548110612e4f57612e4f61413d565b9060005260206000209060020201600001548210612ea05782548390612e7790600190614126565b81548110612e8757612e8761413d565b9060005260206000209060020201600101549050610ffd565b82600081548110612eb357612eb361413d565b906000526020600020906002020160000154821015612ed457506000610ffd565b82546000908190612ee790600190614126565b90505b81811115612f5d5760006002612f0084846142af565b612f0b9060016142af565b612f159190614473565b905084868281548110612f2a57612f2a61413d565b90600052602060002090600202016000015411612f4957809250612f57565b612f54600182614126565b91505b50612eea565b848281548110612f6f57612f6f61413d565b9060005260206000209060020201600101549250505092915050565b6001600160a01b038216612fe15760405162461bcd60e51b815260206004820152601760248201527f41726269747261746f722061646472657373207a65726f0000000000000000006044820152606401610be6565b8061302e5760405162461bcd60e51b815260206004820152601f60248201527f41726269747261746f7220726573706f6e736520706572696f64207a65726f006044820152606401610be6565b6001600160a01b038216600081815260046020908152604091829020849055815184815233918101919091527f2100b6d234df280c150d5b268fcefe4152b3786973a733b33c544d5f33f8adfc910160405180910390a25050565b61309233611e22565b6130de5760405162461bcd60e51b815260206004820152601c60248201527f53656e646572206c61636b732061726269747261746f7220726f6c65000000006044820152606401610be6565b6000828152600b60205260409020546001600160a01b031633146131445760405162461bcd60e51b815260206004820152601760248201527f53656e6465722077726f6e672061726269747261746f720000000000000000006044820152606401610be6565b600082815260096020526040902060058082015460ff16600981111561316c5761316c613f04565b146131b95760405162461bcd60e51b815260206004820152601960248201527f4e6f206469737075746520746f206265207265736f6c766564000000000000006044820152606401610be6565b336000908152600460208190526040909120549082015442916131db916142af565b116132285760405162461bcd60e51b815260206004820152601b60248201527f546f6f206c61746520746f207265736f6c7665206469737075746500000000006044820152606401610be6565b600082600281111561323c5761323c613f04565b14156132995760058101805460ff1916600617905580546040513381526001600160a01b039091169084907f019a1aba5ff3fa2a4ae33ef75016e20a731b879de3bf625981fc366dc333a1499060200160405180910390a3505050565b60018260028111156132ad576132ad613f04565b141561337a5760058101805460ff1916600717905560028101546132d133826138c0565b81546001830154604080516001600160a01b0392831681526020810185905233818301529051919092169186917ff1183a1b014ad0d5109ced01f033b97b0ecbeac7fc589d29d565609357ff41ea9181900360600190a36001805490830154604051632cacc0cb60e01b81526001600160a01b03918216600482015260248101849052911690632cacc0cb90604401600060405180830381600087803b158015611ade57600080fd5b600282600281111561338e5761338e613f04565b141561349d5760058101805460ff191660081790556000838152600a6020526040902054806133ff5781546040513381526001600160a01b039091169085907f019a1aba5ff3fa2a4ae33ef75016e20a731b879de3bf625981fc366dc333a1499060200160405180910390a3610db3565b61340933826138c0565b81546001830154604080516001600160a01b0392831681526020810185905233818301529051919092169186917f24b26f6741ee1fe16a2a9656efe9fba8d2f6306d1804c4d76504ea8f2fcc7a3d9181900360600190a36001805490830154604051632cacc0cb60e01b81526001600160a01b03918216600482015260248101849052911690632cacc0cb90604401611ac4565b505050565b806134ef5760405162461bcd60e51b815260206004820152601d60248201527f436c61696d616e7420726573706f6e736520706572696f64207a65726f0000006044820152606401610be6565b60038190556040518181527f14aadc0eb5e23e0beac6698111aeace92a48719e61b97d23309fe2ad5532da0f906020015b60405180910390a150565b600082815260096020526040902080546001600160a01b031633146135925760405162461bcd60e51b815260206004820152601360248201527f53656e646572206e6f7420636c61696d616e74000000000000000000000000006044820152606401610be6565b6001600582015460ff1660098111156135ad576135ad613f04565b1415613686574260025482600401546135c691906142af565b11156136145760405162461bcd60e51b815260206004820152601a60248201527f4177616974696e67206d65646961746f7220726573706f6e73650000000000006044820152606401610be6565b42600354600254836004015461362a91906142af565b61363491906142af565b116136815760405162461bcd60e51b815260206004820152601a60248201527f546f6f206c61746520746f2063726561746520646973707574650000000000006044820152606401610be6565b613702565b6003600582015460ff1660098111156136a1576136a1613f04565b14156136ba5742600354826004015461363491906142af565b60405162461bcd60e51b815260206004820152601760248201527f436c61696d206973206e6f742064697370757461626c650000000000000000006044820152606401610be6565b61370b82611e22565b6137575760405162461bcd60e51b815260206004820152601560248201527f41726269747261746f72206c61636b7320726f6c6500000000000000000000006044820152606401610be6565b6001600160a01b0382166000908152600460205260409020546137bc5760405162461bcd60e51b815260206004820152601f60248201527f41726269747261746f7220726573706f6e736520706572696f64207a65726f006044820152606401610be6565b6005818101805460ff191690911790554260048201556000838152600b6020908152604091829020805473ffffffffffffffffffffffffffffffffffffffff19166001600160a01b0386169081179091559151918252339185917ff0ac7acb9253135806253b0c4bcb114993d95528b372569fad5a16f2f6116f7791016125d0565b8061388b5760405162461bcd60e51b815260206004820152601d60248201527f4d65646961746f7220726573706f6e736520706572696f64207a65726f0000006044820152606401610be6565b60028190556040518181527f2a935b3623b7502b1c232465ec66ced2e9862c415aded2a4fdf78973939be3c990602001613520565b6001600160a01b0382166000908152600560205260409020805482901561392157815482906138f190600190614126565b815481106139015761390161413d565b9060005260206000209060020201600101548161391e91906142af565b90505b60408051808201825242815260208082018481528554600181810188556000888152848120955160029093029095019182559151908201556001600160a01b03881683526006909152919020015461397885610988565b1115610db35760405162461bcd60e51b815260206004820152600e60248201527f51756f74612065786365656465640000000000000000000000000000000000006044820152606401610be6565b6001600160a01b038116613a1c5760405162461bcd60e51b815260206004820152601560248201527f41706933506f6f6c2061646472657373207a65726f00000000000000000000006044820152606401610be6565b6001805473ffffffffffffffffffffffffffffffffffffffff19166001600160a01b0383169081179091556040519081527fcfc65ac438a1d87c13d90525ec526e4c8d97e0c51b188c401a6fa6e32a6e99a190602001613520565b6060613a9c83836040518060600160405280602781526020016144b260279139613aa3565b9392505050565b6060833b613b195760405162461bcd60e51b815260206004820152602660248201527f416464726573733a2064656c65676174652063616c6c20746f206e6f6e2d636f60448201527f6e747261637400000000000000000000000000000000000000000000000000006064820152608401610be6565b600080856001600160a01b031685604051613b349190614495565b600060405180830381855af49150503d8060008114613b6f576040519150601f19603f3d011682016040523d82523d6000602084013e613b74565b606091505b5091509150613b84828286613b8e565b9695505050505050565b60608315613b9d575081613a9c565b825115613bad5782518084602001fd5b8160405162461bcd60e51b8152600401610be69190613d08565b828054613bd390614153565b90600052602060002090601f016020900481019282613bf55760008555613c3b565b82601f10613c0e57805160ff1916838001178555613c3b565b82800160010185558215613c3b579182015b82811115613c3b578251825591602001919060010190613c20565b50613c47929150613c4b565b5090565b5b80821115613c475760008155600101613c4c565b600060208284031215613c7257600080fd5b5035919050565b80356001600160a01b0381168114613c9057600080fd5b919050565b600060208284031215613ca757600080fd5b613a9c82613c79565b60005b83811015613ccb578181015183820152602001613cb3565b83811115610db35750506000910152565b60008151808452613cf4816020860160208601613cb0565b601f01601f19169290920160200192915050565b602081526000613a9c6020830184613cdc565b60008060408385031215613d2e57600080fd5b613d3783613c79565b946020939093013593505050565b60008060408385031215613d5857600080fd5b50508035926020909101359150565b600080600060608486031215613d7c57600080fd5b613d8584613c79565b95602085013595506040909401359392505050565b60008083601f840112613dac57600080fd5b50813567ffffffffffffffff811115613dc457600080fd5b602083019150836020828501011115613ddc57600080fd5b9250929050565b600080600080600080600080600060e08a8c031215613e0157600080fd5b613e0a8a613c79565b985060208a0135975060408a0135965060608a0135955060808a013567ffffffffffffffff80821115613e3c57600080fd5b613e488d838e01613d9a565b909750955060a08c0135945060c08c0135915080821115613e6857600080fd5b50613e758c828d01613d9a565b915080935050809150509295985092959850929598565b60008060408385031215613e9f57600080fd5b82359150613eaf60208401613c79565b90509250929050565b600080600060408486031215613ecd57600080fd5b83359250602084013567ffffffffffffffff811115613eeb57600080fd5b613ef786828701613d9a565b9497909650939450505050565b634e487b7160e01b600052602160045260246000fd5b60006001600160a01b03808916835280881660208401525085604083015260c06060830152613f4c60c0830186613cdc565b9050836080830152600a8310613f7257634e487b7160e01b600052602160045260246000fd5b8260a0830152979650505050505050565b60008060208385031215613f9657600080fd5b823567ffffffffffffffff80821115613fae57600080fd5b818501915085601f830112613fc257600080fd5b813581811115613fd157600080fd5b8660208260051b8501011115613fe657600080fd5b60209290920196919550909350505050565b6000602080830181845280855180835260408601915060408160051b870101925083870160005b8281101561404d57603f1988860301845261403b858351613cdc565b9450928501929085019060010161401f565b5092979650505050505050565b6000806040838503121561406d57600080fd5b8235915060208301356003811061408357600080fd5b809150509250929050565b600080600080600080600060c0888a0312156140a957600080fd5b6140b288613c79565b96506140c060208901613c79565b955060408801359450606088013593506080880135925060a088013567ffffffffffffffff8111156140f157600080fd5b6140fd8a828b01613d9a565b989b979a50959850939692959293505050565b634e487b7160e01b600052601160045260246000fd5b60008282101561413857614138614110565b500390565b634e487b7160e01b600052603260045260246000fd5b600181811c9082168061416757607f821691505b6020821081141561418857634e487b7160e01b600052602260045260246000fd5b50919050565b6000602082840312156141a057600080fd5b81518015158114613a9c57600080fd5b60006bffffffffffffffffffffffff19808a60601b168352808960601b166014840152508660288301528560488301528460688301528284608884013750600091016088019081529695505050505050565b600060001982141561421657614216614110565b5060010190565b81835281816020850137506000828201602090810191909152601f909101601f19169091010190565b60006101006001600160a01b038d1683528b60208401528a604084015289606084015280608084015261427c818401898b61421d565b90508660a084015282810360c084015261429781868861421d565b9150508260e08301529b9a5050505050505050505050565b600082198211156142c2576142c2614110565b500190565b6020815260006142db60208301848661421d565b949350505050565b634e487b7160e01b600052604160045260246000fd5b6000808335601e1984360301811261431057600080fd5b83018035915067ffffffffffffffff82111561432b57600080fd5b602001915036819003821315613ddc57600080fd5b8054600090600181811c908083168061435a57607f831692505b602080841082141561437c57634e487b7160e01b600052602260045260246000fd5b83885281801561439357600181146143a7576143d5565b60ff198616898301526040890196506143d5565b876000528160002060005b868110156143cd5781548b82018501529085019083016143b2565b8a0183019750505b50505050505092915050565b8281526040602082015260006142db6040830184614340565b60006020828403121561440c57600080fd5b5051919050565b602081526000613a9c6020830184614340565b60006001600160a01b03808a16835288602084015287604084015286606084015260c0608084015261445c60c08401868861421d565b915080841660a08401525098975050505050505050565b60008261449057634e487b7160e01b600052601260045260246000fd5b500490565b600082516144a7818460208701613cb0565b919091019291505056fe416464726573733a206c6f772d6c6576656c2064656c65676174652063616c6c206661696c6564a26469706673582212205d0057f1c4525f1d49a701826ca75949c3216d7247b635676552fae56a10a64064736f6c63430008090033",
  "linkReferences": {},
  "deployedLinkReferences": {}
}