{
  "_format": "hh-sol-artifact-1",
  "contractName": "ClaimsManagerWithKlerosArbitrator",
  "sourceName": "contracts/ClaimsManagerWithKlerosArbitrator.sol",
  "abi": [
    {
      "inputs": [
        {
          "internalType": "address",
          "name": "_accessControlRegistry",
          "type": "address"
        },
        {
          "internalType": "string",
          "name": "_adminRoleDescription",
          "type": "string"
        },
        {
          "internalType": "address",
          "name": "_manager",
          "type": "address"
        },
        {
          "internalType": "address",
          "name": "_api3Pool",
          "type": "address"
        },
        {
          "internalType": "uint256",
          "name": "_mediatorResponsePeriod",
          "type": "uint256"
        },
        {
          "internalType": "uint256",
          "name": "_claimantResponsePeriod",
          "type": "uint256"
        },
        {
          "internalType": "address",
          "name": "_klerosArbitrator",
          "type": "address"
        },
        {
          "internalType": "bytes",
          "name": "_klerosArbitratorExtraData",
          "type": "bytes"
        },
        {
          "internalType": "uint256",
          "name": "_klerosArbitratorResponsePeriod",
          "type": "uint256"
        }
      ],
      "stateMutability": "nonpayable",
      "type": "constructor"
    },
    {
      "anonymous": false,
      "inputs": [
        {
          "indexed": true,
          "internalType": "uint256",
          "name": "claimIndex",
          "type": "uint256"
        },
        {
          "indexed": true,
          "internalType": "address",
          "name": "claimant",
          "type": "address"
        },
        {
          "indexed": false,
          "internalType": "address",
          "name": "beneficiary",
          "type": "address"
        },
        {
          "indexed": false,
          "internalType": "uint256",
          "name": "claimAmount",
          "type": "uint256"
        },
        {
          "indexed": false,
          "internalType": "address",
          "name": "sender",
          "type": "address"
        }
      ],
      "name": "AcceptedClaim",
      "type": "event"
    },
    {
      "anonymous": false,
      "inputs": [
        {
          "indexed": true,
          "internalType": "uint256",
          "name": "claimIndex",
          "type": "uint256"
        },
        {
          "indexed": true,
          "internalType": "address",
          "name": "claimant",
          "type": "address"
        },
        {
          "indexed": false,
          "internalType": "uint256",
          "name": "amount",
          "type": "uint256"
        }
      ],
      "name": "AcceptedSettlement",
      "type": "event"
    },
    {
      "anonymous": false,
      "inputs": [
        {
          "indexed": true,
          "internalType": "uint256",
          "name": "claimIndex",
          "type": "uint256"
        },
        {
          "indexed": true,
          "internalType": "address",
          "name": "sender",
          "type": "address"
        },
        {
          "indexed": true,
          "internalType": "uint256",
          "name": "klerosArbitratorDisputeId",
          "type": "uint256"
        }
      ],
      "name": "AppealedKlerosArbitratorDecision",
      "type": "event"
    },
    {
      "anonymous": false,
      "inputs": [
        {
          "indexed": true,
          "internalType": "uint256",
          "name": "claimIndex",
          "type": "uint256"
        },
        {
          "indexed": true,
          "internalType": "address",
          "name": "claimant",
          "type": "address"
        },
        {
          "indexed": true,
          "internalType": "bytes32",
          "name": "policyHash",
          "type": "bytes32"
        },
        {
          "indexed": false,
          "internalType": "address",
          "name": "beneficiary",
          "type": "address"
        },
        {
          "indexed": false,
          "internalType": "uint256",
          "name": "coverageAmount",
          "type": "uint256"
        },
        {
          "indexed": false,
          "internalType": "uint256",
          "name": "startTime",
          "type": "uint256"
        },
        {
          "indexed": false,
          "internalType": "uint256",
          "name": "endTime",
          "type": "uint256"
        },
        {
          "indexed": false,
          "internalType": "string",
          "name": "policy",
          "type": "string"
        },
        {
          "indexed": false,
          "internalType": "uint256",
          "name": "claimAmount",
          "type": "uint256"
        },
        {
          "indexed": false,
          "internalType": "string",
          "name": "evidence",
          "type": "string"
        },
        {
          "indexed": false,
          "internalType": "uint256",
          "name": "claimCreationTime",
          "type": "uint256"
        }
      ],
      "name": "CreatedClaim",
      "type": "event"
    },
    {
      "anonymous": false,
      "inputs": [
        {
          "indexed": true,
          "internalType": "uint256",
          "name": "claimIndex",
          "type": "uint256"
        },
        {
          "indexed": true,
          "internalType": "address",
          "name": "claimant",
          "type": "address"
        },
        {
          "indexed": false,
          "internalType": "address",
          "name": "arbitrator",
          "type": "address"
        }
      ],
      "name": "CreatedDispute",
      "type": "event"
    },
    {
      "anonymous": false,
      "inputs": [
        {
          "indexed": true,
          "internalType": "uint256",
          "name": "claimIndex",
          "type": "uint256"
        },
        {
          "indexed": true,
          "internalType": "address",
          "name": "claimant",
          "type": "address"
        },
        {
          "indexed": true,
          "internalType": "uint256",
          "name": "klerosArbitratorDisputeId",
          "type": "uint256"
        }
      ],
      "name": "CreatedDisputeWithKlerosArbitrator",
      "type": "event"
    },
    {
      "anonymous": false,
      "inputs": [
        {
          "indexed": false,
          "internalType": "address",
          "name": "beneficiary",
          "type": "address"
        },
        {
          "indexed": true,
          "internalType": "address",
          "name": "claimant",
          "type": "address"
        },
        {
          "indexed": true,
          "internalType": "bytes32",
          "name": "policyHash",
          "type": "bytes32"
        },
        {
          "indexed": false,
          "internalType": "uint256",
          "name": "coverageAmount",
          "type": "uint256"
        },
        {
          "indexed": false,
          "internalType": "uint256",
          "name": "startTime",
          "type": "uint256"
        },
        {
          "indexed": false,
          "internalType": "uint256",
          "name": "endTime",
          "type": "uint256"
        },
        {
          "indexed": false,
          "internalType": "string",
          "name": "policy",
          "type": "string"
        },
        {
          "indexed": false,
          "internalType": "address",
          "name": "sender",
          "type": "address"
        }
      ],
      "name": "CreatedPolicy",
      "type": "event"
    },
    {
      "anonymous": false,
      "inputs": [
        {
          "indexed": true,
          "internalType": "contract IArbitrator",
          "name": "_arbitrator",
          "type": "address"
        },
        {
          "indexed": true,
          "internalType": "uint256",
          "name": "_disputeID",
          "type": "uint256"
        },
        {
          "indexed": false,
          "internalType": "uint256",
          "name": "_metaEvidenceID",
          "type": "uint256"
        },
        {
          "indexed": false,
          "internalType": "uint256",
          "name": "_evidenceGroupID",
          "type": "uint256"
        }
      ],
      "name": "Dispute",
      "type": "event"
    },
    {
      "anonymous": false,
      "inputs": [
        {
          "indexed": true,
          "internalType": "contract IArbitrator",
          "name": "_arbitrator",
          "type": "address"
        },
        {
          "indexed": true,
          "internalType": "uint256",
          "name": "_evidenceGroupID",
          "type": "uint256"
        },
        {
          "indexed": true,
          "internalType": "address",
          "name": "_party",
          "type": "address"
        },
        {
          "indexed": false,
          "internalType": "string",
          "name": "_evidence",
          "type": "string"
        }
      ],
      "name": "Evidence",
      "type": "event"
    },
    {
      "anonymous": false,
      "inputs": [
        {
          "indexed": true,
          "internalType": "uint256",
          "name": "_metaEvidenceID",
          "type": "uint256"
        },
        {
          "indexed": false,
          "internalType": "string",
          "name": "_evidence",
          "type": "string"
        }
      ],
      "name": "MetaEvidence",
      "type": "event"
    },
    {
      "anonymous": false,
      "inputs": [
        {
          "indexed": true,
          "internalType": "uint256",
          "name": "claimIndex",
          "type": "uint256"
        },
        {
          "indexed": true,
          "internalType": "address",
          "name": "claimant",
          "type": "address"
        },
        {
          "indexed": false,
          "internalType": "uint256",
          "name": "amount",
          "type": "uint256"
        },
        {
          "indexed": false,
          "internalType": "address",
          "name": "sender",
          "type": "address"
        }
      ],
      "name": "ProposedSettlement",
      "type": "event"
    },
    {
      "anonymous": false,
      "inputs": [
        {
          "indexed": true,
          "internalType": "address",
          "name": "account",
          "type": "address"
        },
        {
          "indexed": false,
          "internalType": "address",
          "name": "sender",
          "type": "address"
        }
      ],
      "name": "ResetQuota",
      "type": "event"
    },
    {
      "anonymous": false,
      "inputs": [
        {
          "indexed": true,
          "internalType": "uint256",
          "name": "claimIndex",
          "type": "uint256"
        },
        {
          "indexed": true,
          "internalType": "address",
          "name": "claimant",
          "type": "address"
        },
        {
          "indexed": false,
          "internalType": "address",
          "name": "beneficiary",
          "type": "address"
        },
        {
          "indexed": false,
          "internalType": "uint256",
          "name": "amount",
          "type": "uint256"
        },
        {
          "indexed": false,
          "internalType": "address",
          "name": "arbitrator",
          "type": "address"
        }
      ],
      "name": "ResolvedDisputeByAcceptingClaim",
      "type": "event"
    },
    {
      "anonymous": false,
      "inputs": [
        {
          "indexed": true,
          "internalType": "uint256",
          "name": "claimIndex",
          "type": "uint256"
        },
        {
          "indexed": true,
          "internalType": "address",
          "name": "claimant",
          "type": "address"
        },
        {
          "indexed": false,
          "internalType": "address",
          "name": "beneficiary",
          "type": "address"
        },
        {
          "indexed": false,
          "internalType": "uint256",
          "name": "amount",
          "type": "uint256"
        },
        {
          "indexed": false,
          "internalType": "address",
          "name": "arbitrator",
          "type": "address"
        }
      ],
      "name": "ResolvedDisputeByAcceptingSettlement",
      "type": "event"
    },
    {
      "anonymous": false,
      "inputs": [
        {
          "indexed": true,
          "internalType": "uint256",
          "name": "claimIndex",
          "type": "uint256"
        },
        {
          "indexed": true,
          "internalType": "address",
          "name": "claimant",
          "type": "address"
        },
        {
          "indexed": false,
          "internalType": "address",
          "name": "arbitrator",
          "type": "address"
        }
      ],
      "name": "ResolvedDisputeByRejectingClaim",
      "type": "event"
    },
    {
      "anonymous": false,
      "inputs": [
        {
          "indexed": true,
          "internalType": "contract IArbitrator",
          "name": "_arbitrator",
          "type": "address"
        },
        {
          "indexed": true,
          "internalType": "uint256",
          "name": "_disputeID",
          "type": "uint256"
        },
        {
          "indexed": false,
          "internalType": "uint256",
          "name": "_ruling",
          "type": "uint256"
        }
      ],
      "name": "Ruling",
      "type": "event"
    },
    {
      "anonymous": false,
      "inputs": [
        {
          "indexed": false,
          "internalType": "address",
          "name": "api3Pool",
          "type": "address"
        }
      ],
      "name": "SetApi3Pool",
      "type": "event"
    },
    {
      "anonymous": false,
      "inputs": [
        {
          "indexed": true,
          "internalType": "address",
          "name": "arbitrator",
          "type": "address"
        },
        {
          "indexed": false,
          "internalType": "uint256",
          "name": "arbitratorResponsePeriod",
          "type": "uint256"
        },
        {
          "indexed": false,
          "internalType": "address",
          "name": "sender",
          "type": "address"
        }
      ],
      "name": "SetArbitratorResponsePeriod",
      "type": "event"
    },
    {
      "anonymous": false,
      "inputs": [
        {
          "indexed": false,
          "internalType": "uint256",
          "name": "claimantResponsePeriod",
          "type": "uint256"
        }
      ],
      "name": "SetClaimantResponsePeriod",
      "type": "event"
    },
    {
      "anonymous": false,
      "inputs": [
        {
          "indexed": false,
          "internalType": "uint256",
          "name": "mediatorResponsePeriod",
          "type": "uint256"
        }
      ],
      "name": "SetMediatorResponsePeriod",
      "type": "event"
    },
    {
      "anonymous": false,
      "inputs": [
        {
          "indexed": true,
          "internalType": "address",
          "name": "account",
          "type": "address"
        },
        {
          "indexed": false,
          "internalType": "uint256",
          "name": "period",
          "type": "uint256"
        },
        {
          "indexed": false,
          "internalType": "uint256",
          "name": "amount",
          "type": "uint256"
        },
        {
          "indexed": false,
          "internalType": "address",
          "name": "sender",
          "type": "address"
        }
      ],
      "name": "SetQuota",
      "type": "event"
    },
    {
      "anonymous": false,
      "inputs": [
        {
          "indexed": true,
          "internalType": "uint256",
          "name": "claimIndex",
          "type": "uint256"
        },
        {
          "indexed": true,
          "internalType": "address",
          "name": "sender",
          "type": "address"
        },
        {
          "indexed": false,
          "internalType": "string",
          "name": "evidence",
          "type": "string"
        }
      ],
      "name": "SubmittedEvidenceToKlerosArbitrator",
      "type": "event"
    },
    {
      "anonymous": false,
      "inputs": [
        {
          "indexed": true,
          "internalType": "uint256",
          "name": "claimIndex",
          "type": "uint256"
        },
        {
          "indexed": true,
          "internalType": "address",
          "name": "claimant",
          "type": "address"
        }
      ],
      "name": "TimedOutClaim",
      "type": "event"
    },
    {
      "inputs": [
        {
          "internalType": "uint256",
          "name": "claimIndex",
          "type": "uint256"
        }
      ],
      "name": "acceptClaim",
      "outputs": [],
      "stateMutability": "nonpayable",
      "type": "function"
    },
    {
      "inputs": [
        {
          "internalType": "uint256",
          "name": "claimIndex",
          "type": "uint256"
        }
      ],
      "name": "acceptSettlement",
      "outputs": [],
      "stateMutability": "nonpayable",
      "type": "function"
    },
    {
      "inputs": [],
      "name": "accessControlRegistry",
      "outputs": [
        {
          "internalType": "address",
          "name": "",
          "type": "address"
        }
      ],
      "stateMutability": "view",
      "type": "function"
    },
    {
      "inputs": [
        {
          "internalType": "address",
          "name": "",
          "type": "address"
        },
        {
          "internalType": "uint256",
          "name": "",
          "type": "uint256"
        }
      ],
      "name": "accountToAccumulatedQuotaUsageCheckpoints",
      "outputs": [
        {
          "internalType": "uint256",
          "name": "fromTimestamp",
          "type": "uint256"
        },
        {
          "internalType": "uint256",
          "name": "value",
          "type": "uint256"
        }
      ],
      "stateMutability": "view",
      "type": "function"
    },
    {
      "inputs": [
        {
          "internalType": "address",
          "name": "",
          "type": "address"
        }
      ],
      "name": "accountToQuota",
      "outputs": [
        {
          "internalType": "uint256",
          "name": "period",
          "type": "uint256"
        },
        {
          "internalType": "uint256",
          "name": "amount",
          "type": "uint256"
        }
      ],
      "stateMutability": "view",
      "type": "function"
    },
    {
      "inputs": [],
      "name": "adminRole",
      "outputs": [
        {
          "internalType": "bytes32",
          "name": "",
          "type": "bytes32"
        }
      ],
      "stateMutability": "view",
      "type": "function"
    },
    {
      "inputs": [],
      "name": "adminRoleDescription",
      "outputs": [
        {
          "internalType": "string",
          "name": "",
          "type": "string"
        }
      ],
      "stateMutability": "view",
      "type": "function"
    },
    {
      "inputs": [],
      "name": "api3Pool",
      "outputs": [
        {
          "internalType": "address",
          "name": "",
          "type": "address"
        }
      ],
      "stateMutability": "view",
      "type": "function"
    },
    {
      "inputs": [
        {
          "internalType": "uint256",
          "name": "claimIndex",
          "type": "uint256"
        },
        {
          "internalType": "uint256",
          "name": "klerosArbitratorDisputeId",
          "type": "uint256"
        }
      ],
      "name": "appealKlerosArbitratorDecision",
      "outputs": [],
      "stateMutability": "payable",
      "type": "function"
    },
    {
      "inputs": [],
      "name": "arbitratorRole",
      "outputs": [
        {
          "internalType": "bytes32",
          "name": "",
          "type": "bytes32"
        }
      ],
      "stateMutability": "view",
      "type": "function"
    },
    {
      "inputs": [
        {
          "internalType": "address",
          "name": "",
          "type": "address"
        }
      ],
      "name": "arbitratorToResponsePeriod",
      "outputs": [
        {
          "internalType": "uint256",
          "name": "",
          "type": "uint256"
        }
      ],
      "stateMutability": "view",
      "type": "function"
    },
    {
      "inputs": [],
      "name": "claimCount",
      "outputs": [
        {
          "internalType": "uint256",
          "name": "",
          "type": "uint256"
        }
      ],
      "stateMutability": "view",
      "type": "function"
    },
    {
      "inputs": [
        {
          "internalType": "uint256",
          "name": "",
          "type": "uint256"
        }
      ],
      "name": "claimIndexToArbitrator",
      "outputs": [
        {
          "internalType": "address",
          "name": "",
          "type": "address"
        }
      ],
      "stateMutability": "view",
      "type": "function"
    },
    {
      "inputs": [
        {
          "internalType": "uint256",
          "name": "",
          "type": "uint256"
        }
      ],
      "name": "claimIndexToProposedSettlementAmount",
      "outputs": [
        {
          "internalType": "uint256",
          "name": "",
          "type": "uint256"
        }
      ],
      "stateMutability": "view",
      "type": "function"
    },
    {
      "inputs": [],
      "name": "claimantResponsePeriod",
      "outputs": [
        {
          "internalType": "uint256",
          "name": "",
          "type": "uint256"
        }
      ],
      "stateMutability": "view",
      "type": "function"
    },
    {
      "inputs": [
        {
          "internalType": "uint256",
          "name": "",
          "type": "uint256"
        }
      ],
      "name": "claims",
      "outputs": [
        {
          "internalType": "uint256",
          "name": "claimIndex",
          "type": "uint256"
        },
        {
          "internalType": "address",
          "name": "claimant",
          "type": "address"
        },
        {
          "internalType": "address",
          "name": "beneficiary",
          "type": "address"
        },
        {
          "internalType": "uint256",
          "name": "amount",
          "type": "uint256"
        },
        {
          "internalType": "string",
          "name": "evidence",
          "type": "string"
        },
        {
          "internalType": "uint256",
          "name": "updateTime",
          "type": "uint256"
        },
        {
          "internalType": "enum IClaimsManager.ClaimStatus",
          "name": "status",
          "type": "uint8"
        }
      ],
      "stateMutability": "view",
      "type": "function"
    },
    {
      "inputs": [
        {
          "internalType": "address",
          "name": "beneficiary",
          "type": "address"
        },
        {
          "internalType": "uint256",
          "name": "coverageAmount",
          "type": "uint256"
        },
        {
          "internalType": "uint256",
          "name": "startTime",
          "type": "uint256"
        },
        {
          "internalType": "uint256",
          "name": "endTime",
          "type": "uint256"
        },
        {
          "internalType": "string",
          "name": "policy",
          "type": "string"
        },
        {
          "internalType": "uint256",
          "name": "claimAmount",
          "type": "uint256"
        },
        {
          "internalType": "string",
          "name": "evidence",
          "type": "string"
        }
      ],
      "name": "createClaim",
      "outputs": [
        {
          "internalType": "uint256",
          "name": "claimIndex",
          "type": "uint256"
        }
      ],
      "stateMutability": "nonpayable",
      "type": "function"
    },
    {
      "inputs": [
        {
          "internalType": "uint256",
          "name": "claimIndex",
          "type": "uint256"
        },
        {
          "internalType": "address",
          "name": "arbitrator",
          "type": "address"
        }
      ],
      "name": "createDispute",
      "outputs": [],
      "stateMutability": "nonpayable",
      "type": "function"
    },
    {
      "inputs": [
        {
          "internalType": "uint256",
          "name": "claimIndex",
          "type": "uint256"
        }
      ],
      "name": "createDisputeWithKlerosArbitrator",
      "outputs": [],
      "stateMutability": "payable",
      "type": "function"
    },
    {
      "inputs": [
        {
          "internalType": "address",
          "name": "claimant",
          "type": "address"
        },
        {
          "internalType": "address",
          "name": "beneficiary",
          "type": "address"
        },
        {
          "internalType": "uint256",
          "name": "coverageAmount",
          "type": "uint256"
        },
        {
          "internalType": "uint256",
          "name": "startTime",
          "type": "uint256"
        },
        {
          "internalType": "uint256",
          "name": "endTime",
          "type": "uint256"
        },
        {
          "internalType": "string",
          "name": "policy",
          "type": "string"
        }
      ],
      "name": "createPolicy",
      "outputs": [
        {
          "internalType": "bytes32",
          "name": "policyHash",
          "type": "bytes32"
        }
      ],
      "stateMutability": "nonpayable",
      "type": "function"
    },
    {
      "inputs": [
        {
          "internalType": "uint256",
          "name": "claimIndex",
          "type": "uint256"
        }
      ],
      "name": "getClaim",
      "outputs": [
        {
          "internalType": "bool",
          "name": "",
          "type": "bool"
        }
      ],
      "stateMutability": "view",
      "type": "function"
    },
    {
      "inputs": [
        {
          "internalType": "address",
          "name": "account",
          "type": "address"
        }
      ],
      "name": "getQuotaUsage",
      "outputs": [
        {
          "internalType": "uint256",
          "name": "",
          "type": "uint256"
        }
      ],
      "stateMutability": "view",
      "type": "function"
    },
    {
      "inputs": [
        {
          "internalType": "address",
          "name": "account",
          "type": "address"
        }
      ],
      "name": "hasArbitratorRole",
      "outputs": [
        {
          "internalType": "bool",
          "name": "",
          "type": "bool"
        }
      ],
      "stateMutability": "view",
      "type": "function"
    },
    {
      "inputs": [
        {
          "internalType": "address",
          "name": "account",
          "type": "address"
        }
      ],
      "name": "hasMediatorRoleOrIsManager",
      "outputs": [
        {
          "internalType": "bool",
          "name": "",
          "type": "bool"
        }
      ],
      "stateMutability": "view",
      "type": "function"
    },
    {
      "inputs": [
        {
          "internalType": "address",
          "name": "account",
          "type": "address"
        }
      ],
      "name": "hasPolicyCreatorRoleOrIsManager",
      "outputs": [
        {
          "internalType": "bool",
          "name": "",
          "type": "bool"
        }
      ],
      "stateMutability": "view",
      "type": "function"
    },
    {
      "inputs": [],
      "name": "klerosArbitrator",
      "outputs": [
        {
          "internalType": "contract IArbitrator",
          "name": "",
          "type": "address"
        }
      ],
      "stateMutability": "view",
      "type": "function"
    },
    {
      "inputs": [
        {
          "internalType": "uint256",
          "name": "",
          "type": "uint256"
        }
      ],
      "name": "klerosArbitratorDisputeIdToClaimIndex",
      "outputs": [
        {
          "internalType": "uint256",
          "name": "",
          "type": "uint256"
        }
      ],
      "stateMutability": "view",
      "type": "function"
    },
    {
      "inputs": [],
      "name": "klerosArbitratorExtraData",
      "outputs": [
        {
          "internalType": "bytes",
          "name": "",
          "type": "bytes"
        }
      ],
      "stateMutability": "view",
      "type": "function"
    },
    {
      "inputs": [],
      "name": "manager",
      "outputs": [
        {
          "internalType": "address",
          "name": "",
          "type": "address"
        }
      ],
      "stateMutability": "view",
      "type": "function"
    },
    {
      "inputs": [],
      "name": "mediatorResponsePeriod",
      "outputs": [
        {
          "internalType": "uint256",
          "name": "",
          "type": "uint256"
        }
      ],
      "stateMutability": "view",
      "type": "function"
    },
    {
      "inputs": [],
      "name": "mediatorRole",
      "outputs": [
        {
          "internalType": "bytes32",
          "name": "",
          "type": "bytes32"
        }
      ],
      "stateMutability": "view",
      "type": "function"
    },
    {
      "inputs": [
        {
          "internalType": "bytes[]",
          "name": "data",
          "type": "bytes[]"
        }
      ],
      "name": "multicall",
      "outputs": [
        {
          "internalType": "bytes[]",
          "name": "results",
          "type": "bytes[]"
        }
      ],
      "stateMutability": "nonpayable",
      "type": "function"
    },
    {
      "inputs": [],
      "name": "policyCreatorRole",
      "outputs": [
        {
          "internalType": "bytes32",
          "name": "",
          "type": "bytes32"
        }
      ],
      "stateMutability": "view",
      "type": "function"
    },
    {
      "inputs": [
        {
          "internalType": "bytes32",
          "name": "",
          "type": "bytes32"
        }
      ],
      "name": "policyWithHashExists",
      "outputs": [
        {
          "internalType": "bool",
          "name": "",
          "type": "bool"
        }
      ],
      "stateMutability": "view",
      "type": "function"
    },
    {
      "inputs": [
        {
          "internalType": "uint256",
          "name": "claimIndex",
          "type": "uint256"
        },
        {
          "internalType": "uint256",
          "name": "amount",
          "type": "uint256"
        }
      ],
      "name": "proposeSettlement",
      "outputs": [],
      "stateMutability": "nonpayable",
      "type": "function"
    },
    {
      "inputs": [
        {
          "internalType": "address",
          "name": "account",
          "type": "address"
        }
      ],
      "name": "resetQuota",
      "outputs": [],
      "stateMutability": "nonpayable",
      "type": "function"
    },
    {
      "inputs": [
        {
          "internalType": "uint256",
          "name": "claimIndex",
          "type": "uint256"
        },
        {
          "internalType": "enum IClaimsManager.ArbitratorDecision",
          "name": "result",
          "type": "uint8"
        }
      ],
      "name": "resolveDispute",
      "outputs": [],
      "stateMutability": "nonpayable",
      "type": "function"
    },
    {
      "inputs": [
        {
          "internalType": "uint256",
          "name": "disputeId",
          "type": "uint256"
        },
        {
          "internalType": "uint256",
          "name": "ruling",
          "type": "uint256"
        }
      ],
      "name": "rule",
      "outputs": [],
      "stateMutability": "nonpayable",
      "type": "function"
    },
    {
      "inputs": [
        {
          "internalType": "address",
          "name": "_api3Pool",
          "type": "address"
        }
      ],
      "name": "setApi3Pool",
      "outputs": [],
      "stateMutability": "nonpayable",
      "type": "function"
    },
    {
      "inputs": [
        {
          "internalType": "address",
          "name": "arbitrator",
          "type": "address"
        },
        {
          "internalType": "uint256",
          "name": "arbitratorResponsePeriod",
          "type": "uint256"
        }
      ],
      "name": "setArbitratorResponsePeriod",
      "outputs": [],
      "stateMutability": "nonpayable",
      "type": "function"
    },
    {
      "inputs": [
        {
          "internalType": "uint256",
          "name": "_claimantResponsePeriod",
          "type": "uint256"
        }
      ],
      "name": "setClaimantResponsePeriod",
      "outputs": [],
      "stateMutability": "nonpayable",
      "type": "function"
    },
    {
      "inputs": [
        {
          "internalType": "uint256",
          "name": "_mediatorResponsePeriod",
          "type": "uint256"
        }
      ],
      "name": "setMediatorResponsePeriod",
      "outputs": [],
      "stateMutability": "nonpayable",
      "type": "function"
    },
    {
      "inputs": [
        {
          "internalType": "address",
          "name": "account",
          "type": "address"
        },
        {
          "internalType": "uint256",
          "name": "period",
          "type": "uint256"
        },
        {
          "internalType": "uint256",
          "name": "amount",
          "type": "uint256"
        }
      ],
      "name": "setQuota",
      "outputs": [],
      "stateMutability": "nonpayable",
      "type": "function"
    },
    {
      "inputs": [
        {
          "internalType": "uint256",
          "name": "claimIndex",
          "type": "uint256"
        },
        {
          "internalType": "string",
          "name": "evidence",
          "type": "string"
        }
      ],
      "name": "submitEvidenceToKlerosArbitrator",
      "outputs": [],
      "stateMutability": "nonpayable",
      "type": "function"
    },
    {
      "inputs": [
        {
          "internalType": "uint256",
          "name": "claimIndex",
          "type": "uint256"
        }
      ],
      "name": "timeOutClaim",
      "outputs": [],
      "stateMutability": "nonpayable",
      "type": "function"
    }
  ],
  "bytecode": "0x61018060405260006008553480156200001757600080fd5b5060405162005428380380620054288339810160408190526200003a9162000873565b8888888888888585858282816001600160a01b038116620000955760405162461bcd60e51b815260206004820152601060248201526f4143522061646472657373207a65726f60801b60448201526064015b60405180910390fd5b6001600160a01b03166080528051620000f15760405162461bcd60e51b815260206004820152601c60248201527f41646d696e20726f6c65206465736372697074696f6e20656d7074790000000060448201526064016200008c565b805162000106906000906020840190620006c1565b50806040516020016200011a91906200095e565b60408051601f19818403018152919052805160209091012060a05250506001600160a01b0381166200018f5760405162461bcd60e51b815260206004820152601460248201527f4d616e616765722061646472657373207a65726f00000000000000000000000060448201526064016200008c565b6001600160a01b03811660c052620001a78162000362565b60e08190526040516d2837b634b1bc9031b932b0ba37b960911b6020820152620001f79450909250602e0190505b60405160208183030381529060405280519060200120620003dc60201b60201c565b6101005260e0516040516726b2b234b0ba37b960c11b6020820152620002219190602801620001d5565b6101205260e0516040516920b93134ba3930ba37b960b11b60208201526200024d9190602a01620001d5565b610140526200025c8362000408565b6200026782620004b5565b62000272816200053a565b50505050506001600160a01b03841615159050620002d35760405162461bcd60e51b815260206004820152601e60248201527f4b6c65726f732061726269747261746f722061646472657373207a65726f000060448201526064016200008c565b8151620003235760405162461bcd60e51b815260206004820152601b60248201527f41726269747261746f72206578747261206461746120656d707479000000000060448201526064016200008c565b6001600160a01b0383166101605281516200034690600c906020850190620006c1565b50620003538382620005bf565b505050505050505050620009b9565b6000620003d6620003a7836040516001600160601b0319606083901b166020820152600090603401604051602081830303815290604052805190602001209050919050565b60a051604080516020808201949094528082019290925280518083038201815260609092019052805191012090565b92915050565b604080516020808201949094528082019290925280518083038201815260609092019052805191012090565b6001600160a01b038116620004605760405162461bcd60e51b815260206004820152601560248201527f41706933506f6f6c2061646472657373207a65726f000000000000000000000060448201526064016200008c565b600180546001600160a01b0319166001600160a01b0383169081179091556040519081527fcfc65ac438a1d87c13d90525ec526e4c8d97e0c51b188c401a6fa6e32a6e99a1906020015b60405180910390a150565b80620005045760405162461bcd60e51b815260206004820152601d60248201527f4d65646961746f7220726573706f6e736520706572696f64207a65726f00000060448201526064016200008c565b60028190556040518181527f2a935b3623b7502b1c232465ec66ced2e9862c415aded2a4fdf78973939be3c990602001620004aa565b80620005895760405162461bcd60e51b815260206004820152601d60248201527f436c61696d616e7420726573706f6e736520706572696f64207a65726f00000060448201526064016200008c565b60038190556040518181527f14aadc0eb5e23e0beac6698111aeace92a48719e61b97d23309fe2ad5532da0f90602001620004aa565b6001600160a01b038216620006175760405162461bcd60e51b815260206004820152601760248201527f41726269747261746f722061646472657373207a65726f00000000000000000060448201526064016200008c565b80620006665760405162461bcd60e51b815260206004820152601f60248201527f41726269747261746f7220726573706f6e736520706572696f64207a65726f0060448201526064016200008c565b6001600160a01b038216600081815260046020908152604091829020849055815184815233918101919091527f2100b6d234df280c150d5b268fcefe4152b3786973a733b33c544d5f33f8adfc910160405180910390a25050565b828054620006cf906200097c565b90600052602060002090601f016020900481019282620006f357600085556200073e565b82601f106200070e57805160ff19168380011785556200073e565b828001600101855582156200073e579182015b828111156200073e57825182559160200191906001019062000721565b506200074c92915062000750565b5090565b5b808211156200074c576000815560010162000751565b80516001600160a01b03811681146200077f57600080fd5b919050565b634e487b7160e01b600052604160045260246000fd5b60005b83811015620007b75781810151838201526020016200079d565b83811115620007c7576000848401525b50505050565b60006001600160401b0380841115620007ea57620007ea62000784565b604051601f8501601f19908116603f0116810190828211818310171562000815576200081562000784565b816040528093508581528686860111156200082f57600080fd5b6200083f8660208301876200079a565b5050509392505050565b600082601f8301126200085b57600080fd5b6200086c83835160208501620007cd565b9392505050565b60008060008060008060008060006101208a8c0312156200089357600080fd5b6200089e8a62000767565b60208b01519099506001600160401b0380821115620008bc57600080fd5b818c0191508c601f830112620008d157600080fd5b620008e28d835160208501620007cd565b9950620008f260408d0162000767565b98506200090260608d0162000767565b975060808c0151965060a08c015195506200092060c08d0162000767565b945060e08c01519150808211156200093757600080fd5b50620009468c828d0162000849565b9250506101008a015190509295985092959850929598565b60008251620009728184602087016200079a565b9190910192915050565b600181811c908216806200099157607f821691505b60208210811415620009b357634e487b7160e01b600052602260045260246000fd5b50919050565b60805160a05160c05160e0516101005161012051610140516101605161491762000b11600039600081816106e901528181610c7001528181610d74015281816116f601528181611f7a0152818161267b015281816126a30152818161279f015281816127f8015281816129ae01528181612ae40152612b5d0152600081816103dc0152611ebf0152600081816108460152610f7801526000818161051501526128bc01526000818161030801528181610b1c01528181610e260152818161107001528181611bc9015261202101526000818161059f01528181610add01528181610de701528181610f3a0152818161103101528181611b8a01528181611fe2015281816122b5015261287e0152600050506000818161041001528181610b4801528181610e5201528181610fae0152818161109c01528181611bf501528181611ef80152818161204d01526128f201526149176000f3fe6080604052600436106102f15760003560e01c80637696cc1b1161018f578063a90081d7116100e1578063d8fa1f481161008a578063eaed212c11610064578063eaed212c14610931578063f58c8a971461095e578063fe571b6f1461099457600080fd5b8063d8fa1f48146108de578063e2dcb0a0146108fe578063e55e42111461091157600080fd5b8063b2b96792116100bb578063b2b9679214610895578063c1697bc7146108b5578063ce5320f9146108cb57600080fd5b8063a90081d714610814578063aaac922c14610834578063ac9650d81461086857600080fd5b806394a4889c11610143578063a250bb281161011d578063a250bb28146107a1578063a3133521146107c1578063a888c2cd146107e157600080fd5b806394a4889c14610741578063974e527a146107615780639c34f7c81461078157600080fd5b80638c5aa9c1116101745780638c5aa9c1146106d75780638da4d3c91461070b57806393ee26781461072157600080fd5b80637696cc1b146106975780638163aff3146106b757600080fd5b80633c0c5d0c116102485780634c8f1d8d116101fc5780635aef2447116101d65780635aef2447146106235780636fe2a2d7146106435780637668524a1461066357600080fd5b80634c8f1d8d146105c157806354ba44dd146105d657806356023c2d146105f657600080fd5b80634725ee2c1161022d5780634725ee2c146105575780634766464a14610577578063481c6a751461058d57600080fd5b80633c0c5d0c1461050357806342c8de721461053757600080fd5b80631ce9ae07116102aa578063302a909411610284578063302a90941461048e578063311a6c56146104c357806331dbac57146104e357600080fd5b80631ce9ae07146103fe5780632438b26a1461044a57806325788ef11461046c57600080fd5b806303dd880c116102db57806303dd880c1461037d5780630d0a5e8c146103aa57806314ebc086146103ca57600080fd5b80629f2f3c146102f6578063028ead111461033d575b600080fd5b34801561030257600080fd5b5061032a7f000000000000000000000000000000000000000000000000000000000000000081565b6040519081526020015b60405180910390f35b34801561034957600080fd5b5061036d610358366004613ff0565b60076020526000908152604090205460ff1681565b6040519015158152602001610334565b34801561038957600080fd5b5061032a610398366004613ff0565b600d6020526000908152604090205481565b3480156103b657600080fd5b5061032a6103c5366004614025565b6109b4565b3480156103d657600080fd5b5061032a7f000000000000000000000000000000000000000000000000000000000000000081565b34801561040a57600080fd5b506104327f000000000000000000000000000000000000000000000000000000000000000081565b6040516001600160a01b039091168152602001610334565b34801561045657600080fd5b5061045f610a4d565b6040516103349190614098565b34801561047857600080fd5b5061048c6104873660046140ab565b610adb565b005b34801561049a57600080fd5b506104ae6104a93660046140ab565b610c29565b60408051928352602083019190915201610334565b3480156104cf57600080fd5b5061048c6104de3660046140d5565b610c65565b3480156104ef57600080fd5b5061048c6104fe366004613ff0565b610de5565b34801561050f57600080fd5b5061032a7f000000000000000000000000000000000000000000000000000000000000000081565b34801561054357600080fd5b5061036d610552366004614025565b610f2c565b34801561056357600080fd5b5061048c6105723660046140f7565b61102f565b34801561058357600080fd5b5061032a60025481565b34801561059957600080fd5b506104327f000000000000000000000000000000000000000000000000000000000000000081565b3480156105cd57600080fd5b5061045f6112d7565b3480156105e257600080fd5b5061032a6105f1366004614173565b6112e4565b34801561060257600080fd5b5061032a610611366004613ff0565b600a6020526000908152604090205481565b34801561062f57600080fd5b5061036d61063e366004613ff0565b6116ab565b34801561064f57600080fd5b50600154610432906001600160a01b031681565b34801561066f57600080fd5b506104ae61067e366004614025565b6006602052600090815260409020805460019091015482565b3480156106a357600080fd5b5061048c6106b236600461421c565b6116f4565b3480156106c357600080fd5b5061048c6106d2366004613ff0565b611780565b3480156106e357600080fd5b506104327f000000000000000000000000000000000000000000000000000000000000000081565b34801561071757600080fd5b5061032a60085481565b34801561072d57600080fd5b5061048c61073c366004613ff0565b611985565b34801561074d57600080fd5b5061048c61075c366004613ff0565b611b88565b34801561076d57600080fd5b5061048c61077c366004613ff0565b611ccc565b34801561078d57600080fd5b5061036d61079c366004614025565b611eb0565b3480156107ad57600080fd5b5061048c6107bc366004614248565b611f29565b3480156107cd57600080fd5b5061048c6107dc366004614025565b611fe0565b3480156107ed57600080fd5b506108016107fc366004613ff0565b6121dd565b60405161033497969594939291906142aa565b34801561082057600080fd5b5061048c61082f366004614025565b6122b3565b34801561084057600080fd5b5061032a7f000000000000000000000000000000000000000000000000000000000000000081565b34801561087457600080fd5b5061088861088336600461431a565b612334565b604051610334919061438f565b3480156108a157600080fd5b5061048c6108b03660046140d5565b612429565b3480156108c157600080fd5b5061032a60035481565b61048c6108d9366004613ff0565b612675565b3480156108ea57600080fd5b5061036d6108f9366004614025565b612870565b61048c61090c3660046140d5565b612921565b34801561091d57600080fd5b5061048c61092c3660046143f1565b612b52565b34801561093d57600080fd5b5061032a61094c366004614025565b60046020526000908152604090205481565b34801561096a57600080fd5b50610432610979366004613ff0565b600b602052600090815260409020546001600160a01b031681565b3480156109a057600080fd5b5061032a6109af366004614425565b612bd5565b6001600160a01b03811660009081526005602052604081208054829015610a0a57815482906109e5906001906144bd565b815481106109f5576109f56144d4565b90600052602060002090600202016001015490505b6001600160a01b038416600090815260066020526040812054610a38908490610a3390426144bd565b613066565b9050610a4481836144bd565b95945050505050565b600c8054610a5a906144ea565b80601f0160208091040260200160405190810160405280929190818152602001828054610a86906144ea565b8015610ad35780601f10610aa857610100808354040283529160200191610ad3565b820191906000526020600020905b815481529060010190602001808311610ab657829003601f168201915b505050505081565b7f00000000000000000000000000000000000000000000000000000000000000006001600160a01b0316331480610bca5750604051632474521560e21b81527f000000000000000000000000000000000000000000000000000000000000000060048201523360248201527f00000000000000000000000000000000000000000000000000000000000000006001600160a01b0316906391d148549060440160206040518083038186803b158015610b9257600080fd5b505afa158015610ba6573d6000803e3d6000fd5b505050506040513d601f19601f82011682018060405250810190610bca9190614525565b610c1b5760405162461bcd60e51b815260206004820152601a60248201527f53656e6465722063616e6e6f742061646d696e6973747261746500000000000060448201526064015b60405180910390fd5b610c2582826131d3565b5050565b60056020528160005260406000208181548110610c4557600080fd5b600091825260209091206002909102018054600190910154909250905082565b336001600160a01b037f00000000000000000000000000000000000000000000000000000000000000001614610cdd5760405162461bcd60e51b815260206004820152601c60248201527f53656e646572206e6f74204b6c65726f732061726269747261746f72000000006044820152606401610c12565b6000828152600d602052604081205490821580610cfa5750826001145b15610d0757506000610d71565b8260021415610d1857506001610d71565b8260031415610d2957506002610d71565b60405162461bcd60e51b815260206004820152601560248201527f496e76616c69642072756c696e67206f7074696f6e00000000000000000000006044820152606401610c12565b837f00000000000000000000000000000000000000000000000000000000000000006001600160a01b03167f394027a5fa6e098a1191094d1719d6929b9abc535fcc0c8f448d6a4e7562227685604051610dcd91815260200190565b60405180910390a3610ddf82826132d1565b50505050565b7f00000000000000000000000000000000000000000000000000000000000000006001600160a01b0316331480610ed45750604051632474521560e21b81527f000000000000000000000000000000000000000000000000000000000000000060048201523360248201527f00000000000000000000000000000000000000000000000000000000000000006001600160a01b0316906391d148549060440160206040518083038186803b158015610e9c57600080fd5b505afa158015610eb0573d6000803e3d6000fd5b505050506040513d601f19601f82011682018060405250810190610ed49190614525565b610f205760405162461bcd60e51b815260206004820152601a60248201527f53656e6465722063616e6e6f742061646d696e697374726174650000000000006044820152606401610c12565b610f29816136f6565b50565b6000816001600160a01b03167f00000000000000000000000000000000000000000000000000000000000000006001600160a01b031614806110295750604051632474521560e21b81527f000000000000000000000000000000000000000000000000000000000000000060048201526001600160a01b0383811660248301527f000000000000000000000000000000000000000000000000000000000000000016906391d14854906044015b60206040518083038186803b158015610ff157600080fd5b505afa158015611005573d6000803e3d6000fd5b505050506040513d601f19601f820116820180604052508101906110299190614525565b92915050565b7f00000000000000000000000000000000000000000000000000000000000000006001600160a01b031633148061111e5750604051632474521560e21b81527f000000000000000000000000000000000000000000000000000000000000000060048201523360248201527f00000000000000000000000000000000000000000000000000000000000000006001600160a01b0316906391d148549060440160206040518083038186803b1580156110e657600080fd5b505afa1580156110fa573d6000803e3d6000fd5b505050506040513d601f19601f8201168201806040525081019061111e9190614525565b61116a5760405162461bcd60e51b815260206004820152601a60248201527f53656e6465722063616e6e6f742061646d696e697374726174650000000000006044820152606401610c12565b6001600160a01b0383166111c05760405162461bcd60e51b815260206004820152601460248201527f4163636f756e742061646472657373207a65726f0000000000000000000000006044820152606401610c12565b8161120d5760405162461bcd60e51b815260206004820152601160248201527f51756f746120706572696f64207a65726f0000000000000000000000000000006044820152606401610c12565b8061125a5760405162461bcd60e51b815260206004820152601160248201527f51756f746120616d6f756e74207a65726f0000000000000000000000000000006044820152606401610c12565b60408051808201825283815260208082018481526001600160a01b03871660008181526006845285902093518455905160019093019290925582518581529081018490523381840152915190917fc7e085b16eac3e6c38159caf61d714f1622ab55fcc3ba064369b12986e484a72919081900360600190a2505050565b60008054610a5a906144ea565b600080338b8b8b8b8b8b6040516020016113049796959493929190614547565b60408051601f1981840301815291815281516020928301206000818152600790935291205490915060ff1661137b5760405162461bcd60e51b815260206004820152601560248201527f506f6c69637920646f6573206e6f7420657869737400000000000000000000006044820152606401610c12565b846113c85760405162461bcd60e51b815260206004820152601160248201527f436c61696d20616d6f756e74207a65726f0000000000000000000000000000006044820152606401610c12565b826114155760405162461bcd60e51b815260206004820152601660248201527f45766964656e6365206164647265737320656d707479000000000000000000006044820152606401610c12565b884210156114655760405162461bcd60e51b815260206004820152601560248201527f506f6c696379206e6f74206163746976652079657400000000000000000000006044820152606401610c12565b874211156114b55760405162461bcd60e51b815260206004820152600e60248201527f506f6c69637920657870697265640000000000000000000000000000000000006044820152606401610c12565b898511156115055760405162461bcd60e51b815260206004820152601a60248201527f436c61696d206c6172676572207468616e20636f7665726167650000000000006044820152606401610c12565b6008805490600061151583614599565b9190505591506040518060e00160405280838152602001336001600160a01b031681526020018c6001600160a01b0316815260200186815260200185858080601f01602080910402602001604051908101604052809392919081815260200183838082843760009201919091525050509082525042602082015260400160019052600083815260096020908152604091829020835181558382015160018201805473ffffffffffffffffffffffffffffffffffffffff199081166001600160a01b03938416179091559385015160028301805490951691161790925560608301516003830155608083015180516116129260048501920190613f57565b5060a0820151600582015560c082015160068201805460ff1916600183600981111561164057611640614294565b021790555090505080336001600160a01b0316837f52d84cd5f2f2bd072a480ab80199ea5a2e41ab41420d2b2c2a3b295871e3e6328e8e8e8e8e8e8e8e8e426040516116959a999897969594939291906145dd565b60405180910390a4509998505050505050505050565b60006116ec6040518060400160405280600a81526020017f676574436c61696d2025000000000000000000000000000000000000000000008152508361377f565b506000919050565b7f00000000000000000000000000000000000000000000000000000000000000006001600160a01b0316816001600160a01b031614156117765760405162461bcd60e51b815260206004820152601f60248201527f557365204b6c65726f732061726269747261746f7220696e74657266616365006044820152606401610c12565b610c2582826137dd565b6000818152600960205260409020600681015460ff1660018160098111156117aa576117aa614294565b1415611823574260035460025484600501546117c69190614646565b6117d09190614646565b111561181e5760405162461bcd60e51b815260206004820152601a60248201527f4177616974696e6720636c61696d616e7420726573706f6e73650000000000006044820152606401610c12565b611935565b600381600981111561183757611837614294565b1415611850574260035483600501546117d09190614646565b600581600981111561186457611864614294565b14156118ed576000838152600b60209081526040808320546001600160a01b0316835260049091529020546005830154429161189f91614646565b111561181e5760405162461bcd60e51b815260206004820152601c60248201527f4177616974696e672061726269747261746f7220726573706f6e7365000000006044820152606401610c12565b60405162461bcd60e51b815260206004820152601960248201527f436c61696d2063616e6e6f742062652074696d6564206f7574000000000000006044820152606401610c12565b60068201805460ff1916600917905560018201546040516001600160a01b039091169084907f3efd54611bd3bdb1c90f2de746ce07d3f310c0a7bb628965c5a194fadea8aafd90600090a3505050565b600081815260096020526040902060018101546001600160a01b03163381146119f05760405162461bcd60e51b815260206004820152601360248201527f53656e646572206e6f7420636c61696d616e74000000000000000000000000006044820152606401610c12565b6003600683015460ff166009811115611a0b57611a0b614294565b14611a585760405162461bcd60e51b815260206004820152601760248201527f4e6f20736574746c656d656e7420746f206163636570740000000000000000006044820152606401610c12565b426003548360050154611a6b9190614646565b11611ab85760405162461bcd60e51b815260206004820152601d60248201527f546f6f206c61746520746f2061636365707420736574746c656d656e740000006044820152606401610c12565b60068201805460ff191660041790556000838152600a60209081526040918290205491518281526001600160a01b0384169186917f9fcb8c9c70780f0985c1db1a7fb9b39569aedbd5e5e14babe7deb3870cc69253910160405180910390a36001546002840154604051632cacc0cb60e01b81526001600160a01b03918216600482015260248101849052911690632cacc0cb906044015b600060405180830381600087803b158015611b6a57600080fd5b505af1158015611b7e573d6000803e3d6000fd5b5050505050505050565b7f00000000000000000000000000000000000000000000000000000000000000006001600160a01b0316331480611c775750604051632474521560e21b81527f000000000000000000000000000000000000000000000000000000000000000060048201523360248201527f00000000000000000000000000000000000000000000000000000000000000006001600160a01b0316906391d148549060440160206040518083038186803b158015611c3f57600080fd5b505afa158015611c53573d6000803e3d6000fd5b505050506040513d601f19601f82011682018060405250810190611c779190614525565b611cc35760405162461bcd60e51b815260206004820152601a60248201527f53656e6465722063616e6e6f742061646d696e697374726174650000000000006044820152606401610c12565b610f2981613af5565b611cd533610f2c565b611d215760405162461bcd60e51b815260206004820152601a60248201527f53656e6465722063616e6e6f742061636365707420636c61696d0000000000006044820152606401610c12565b60008181526009602052604090206001600682015460ff166009811115611d4a57611d4a614294565b14611d975760405162461bcd60e51b815260206004820152601760248201527f436c61696d206973206e6f742061636365707461626c650000000000000000006044820152606401610c12565b426002548260050154611daa9190614646565b11611df75760405162461bcd60e51b815260206004820152601860248201527f546f6f206c61746520746f2061636365707420636c61696d00000000000000006044820152606401610c12565b60068101805460ff191660021790556003810154611e16903390613b77565b600281015460038201546001830154604080516001600160a01b03948516808252602082018590523382840152915191949092169186917f75dc6b85e515227eac30cec00bc063313b2dfed539fd4ff0254dc58b844300049181900360600190a3600154604051632cacc0cb60e01b81526001600160a01b0384811660048301526024820184905290911690632cacc0cb90604401611b50565b604051632474521560e21b81527f000000000000000000000000000000000000000000000000000000000000000060048201526001600160a01b0382811660248301526000917f0000000000000000000000000000000000000000000000000000000000000000909116906391d1485490604401610fd9565b336001600160a01b0316837f0dc84b5d0bd18e707aafa30714b6c681b9dddbeac1724c50756d35a6e72e000b8484604051611f6592919061465e565b60405180910390a3336001600160a01b0316837f00000000000000000000000000000000000000000000000000000000000000006001600160a01b03167fdccf2f8b2cc26eafcd61905cba744cff4b81d14740725f6376390dc6298a6a3c8585604051611fd392919061465e565b60405180910390a4505050565b7f00000000000000000000000000000000000000000000000000000000000000006001600160a01b03163314806120cf5750604051632474521560e21b81527f000000000000000000000000000000000000000000000000000000000000000060048201523360248201527f00000000000000000000000000000000000000000000000000000000000000006001600160a01b0316906391d148549060440160206040518083038186803b15801561209757600080fd5b505afa1580156120ab573d6000803e3d6000fd5b505050506040513d601f19601f820116820180604052508101906120cf9190614525565b61211b5760405162461bcd60e51b815260206004820152601a60248201527f53656e6465722063616e6e6f742061646d696e697374726174650000000000006044820152606401610c12565b6001600160a01b0381166121715760405162461bcd60e51b815260206004820152601460248201527f4163636f756e742061646472657373207a65726f0000000000000000000000006044820152606401610c12565b604080518082018252600080825260208083018281526001600160a01b0386168084526006835292859020935184555160019093019290925591513381527fc9b329d64e64bfbf91e7dcbafe6184465d6f7bd01bc04f9673990e973600640b910160405180910390a250565b6009602052600090815260409020805460018201546002830154600384015460048501805494956001600160a01b039485169593909416939192612220906144ea565b80601f016020809104026020016040519081016040528092919081815260200182805461224c906144ea565b80156122995780601f1061226e57610100808354040283529160200191612299565b820191906000526020600020905b81548152906001019060200180831161227c57829003601f168201915b50505050600583015460069093015491929160ff16905087565b7f00000000000000000000000000000000000000000000000000000000000000006001600160a01b0316331461232b5760405162461bcd60e51b815260206004820152601260248201527f53656e646572206e6f74206d616e6167657200000000000000000000000000006044820152606401610c12565b610f2981613c7d565b60608167ffffffffffffffff81111561234f5761234f61467a565b60405190808252806020026020018201604052801561238257816020015b606081526020019060019003908161236d5790505b50905060005b82811015612422576123f2308585848181106123a6576123a66144d4565b90506020028101906123b89190614690565b8080601f016020809104026020016040519081016040528093929190818152602001838380828437600092019190915250613d2e92505050565b828281518110612404576124046144d4565b6020026020010181905250808061241a90614599565b915050612388565b5092915050565b61243233610f2c565b61247e5760405162461bcd60e51b815260206004820181905260248201527f53656e6465722063616e6e6f742070726f706f736520736574746c656d656e746044820152606401610c12565b806124cb5760405162461bcd60e51b815260206004820152601660248201527f536574746c656d656e7420616d6f756e74207a65726f000000000000000000006044820152606401610c12565b60008281526009602052604090206001600682015460ff1660098111156124f4576124f4614294565b146125415760405162461bcd60e51b815260206004820152601760248201527f436c61696d206973206e6f7420736574746c6561626c650000000000000000006044820152606401610c12565b4260025482600501546125549190614646565b116125a15760405162461bcd60e51b815260206004820152601e60248201527f546f6f206c61746520746f2070726f706f736520736574746c656d656e7400006044820152606401610c12565b806003015482106125f45760405162461bcd60e51b815260206004820152601d60248201527f536574746c656d656e7420616d6f756e74206e6f7420736d616c6c65720000006044820152606401610c12565b60068101805460ff191660031790554260058201556000838152600a602052604090208290556126243383613b77565b6001810154604080518481523360208201526001600160a01b039092169185917fd86536d43eccb7ef71b83489a355310829fee4fd737949326570dd8163187d1691015b60405180910390a3505050565b61269f817f00000000000000000000000000000000000000000000000000000000000000006137dd565b60007f00000000000000000000000000000000000000000000000000000000000000006001600160a01b031663c13517e1346003600c6040518463ffffffff1660e01b81526004016126f2929190614778565b6020604051808303818588803b15801561270b57600080fd5b505af115801561271f573d6000803e3d6000fd5b50505050506040513d601f19601f820116820180604052508101906127449190614791565b6000818152600d6020526040808220859055519192508291339185917f749c18c3c5e21f654d5d5988568435d9017e161f05383b82697f851fe5f596259190a460408051600081526020810184905282916001600160a01b037f000000000000000000000000000000000000000000000000000000000000000016917f74baab670a4015ab2f1b467c5252a96141a2573f2908e58a92081e80d3cfde3d910160405180910390a3336001600160a01b0316827f00000000000000000000000000000000000000000000000000000000000000006001600160a01b03167fdccf2f8b2cc26eafcd61905cba744cff4b81d14740725f6376390dc6298a6a3c6009600087815260200190815260200160002060040160405161286491906147aa565b60405180910390a45050565b6000816001600160a01b03167f00000000000000000000000000000000000000000000000000000000000000006001600160a01b031614806110295750604051632474521560e21b81527f000000000000000000000000000000000000000000000000000000000000000060048201526001600160a01b0383811660248301527f000000000000000000000000000000000000000000000000000000000000000016906391d1485490604401610fd9565b6000818152600d6020526040902054821461297e5760405162461bcd60e51b815260206004820152601f60248201527f436c61696d20696e6465782d64697370757465204944206d69736d61746368006044820152606401610c12565b6040517ff23f16e60000000000000000000000000000000000000000000000000000000081526001600160a01b037f0000000000000000000000000000000000000000000000000000000000000000169063f23f16e6906129e6908490600c90600401614778565b60206040518083038186803b1580156129fe57600080fd5b505afa158015612a12573d6000803e3d6000fd5b505050506040513d601f19601f82011682018060405250810190612a369190614791565b341015612a855760405162461bcd60e51b815260206004820181905260248201527f56616c756520646f6573206e6f7420636f7665722061707065616c20636f73746044820152606401610c12565b6040518190339084907f92c7448b666c23e02c14923fd31159c33c72aecabdadb4b32014d58bcd6a5ff290600090a46040517f49912f880000000000000000000000000000000000000000000000000000000081526001600160a01b037f000000000000000000000000000000000000000000000000000000000000000016906349912f8890612b1c908490600c90600401614778565b600060405180830381600087803b158015612b3657600080fd5b505af1158015612b4a573d6000803e3d6000fd5b505050505050565b336001600160a01b037f0000000000000000000000000000000000000000000000000000000000000000161415612bcb5760405162461bcd60e51b815260206004820152601f60248201527f557365204b6c65726f732061726269747261746f7220696e74657266616365006044820152606401610c12565b610c2582826132d1565b6000612c166040518060400160405280600b81526020017f636c61696d616e7420257300000000000000000000000000000000000000000081525089613d5a565b612c556040518060400160405280600681526020017f62656e202573000000000000000000000000000000000000000000000000000081525088613d5a565b612c946040518060400160405280600981526020017f616d6f756e7420257300000000000000000000000000000000000000000000008152508761377f565b612cd36040518060400160405280600881526020017f73746172742025730000000000000000000000000000000000000000000000008152508661377f565b612d126040518060400160405280600681526020017f656e6420257300000000000000000000000000000000000000000000000000008152508561377f565b612d876040518060400160405280600981526020017f706f6c696379202573000000000000000000000000000000000000000000000081525084848080601f016020809104026020016040519081016040528093929190818152602001838380828437600092019190915250613db892505050565b612d9033612870565b612ddc5760405162461bcd60e51b815260206004820152601b60248201527f53656e6465722063616e6e6f742063726561746520706f6c69637900000000006044820152606401610c12565b6001600160a01b038816612e325760405162461bcd60e51b815260206004820152601560248201527f436c61696d616e742061646472657373207a65726f00000000000000000000006044820152606401610c12565b6001600160a01b038716612e885760405162461bcd60e51b815260206004820152601860248201527f42656e65666963696172792061646472657373207a65726f00000000000000006044820152606401610c12565b85612ed55760405162461bcd60e51b815260206004820152601460248201527f436f76657261676520616d6f756e74207a65726f0000000000000000000000006044820152606401610c12565b84612f225760405162461bcd60e51b815260206004820152600f60248201527f53746172742074696d65207a65726f00000000000000000000000000000000006044820152606401610c12565b848411612f715760405162461bcd60e51b815260206004820152601a60248201527f5374617274206e6f74206561726c696572207468616e20656e640000000000006044820152606401610c12565b81612fbe5760405162461bcd60e51b815260206004820152601460248201527f506f6c696379206164647265737320656d7074790000000000000000000000006044820152606401610c12565b87878787878787604051602001612fdb9796959493929190614547565b60408051601f19818403018152828252805160209182012060008181526007909252919020805460ff19166001179055915081906001600160a01b038a16907f4b0ddcbe6838877cbe105425b25579a172a64b3c8dad3b5242f65081f01db37290613053908b908b908b908b908b908b9033906147bd565b60405180910390a3979650505050505050565b815460009061307757506000611029565b82548390613087906001906144bd565b81548110613097576130976144d4565b90600052602060002090600202016000015482106130e857825483906130bf906001906144bd565b815481106130cf576130cf6144d4565b9060005260206000209060020201600101549050611029565b826000815481106130fb576130fb6144d4565b90600052602060002090600202016000015482101561311c57506000611029565b8254600090819061312f906001906144bd565b90505b818111156131a557600060026131488484614646565b613153906001614646565b61315d919061480a565b905084868281548110613172576131726144d4565b906000526020600020906002020160000154116131915780925061319f565b61319c6001826144bd565b91505b50613132565b8482815481106131b7576131b76144d4565b9060005260206000209060020201600101549250505092915050565b6001600160a01b0382166132295760405162461bcd60e51b815260206004820152601760248201527f41726269747261746f722061646472657373207a65726f0000000000000000006044820152606401610c12565b806132765760405162461bcd60e51b815260206004820152601f60248201527f41726269747261746f7220726573706f6e736520706572696f64207a65726f006044820152606401610c12565b6001600160a01b038216600081815260046020908152604091829020849055815184815233918101919091527f2100b6d234df280c150d5b268fcefe4152b3786973a733b33c544d5f33f8adfc910160405180910390a25050565b6132da33611eb0565b6133265760405162461bcd60e51b815260206004820152601c60248201527f53656e646572206c61636b732061726269747261746f7220726f6c65000000006044820152606401610c12565b6000828152600b60205260409020546001600160a01b0316331461338c5760405162461bcd60e51b815260206004820152601760248201527f53656e6465722077726f6e672061726269747261746f720000000000000000006044820152606401610c12565b60008281526009602052604090206005600682015460ff1660098111156133b5576133b5614294565b146134025760405162461bcd60e51b815260206004820152601960248201527f4e6f206469737075746520746f206265207265736f6c766564000000000000006044820152606401610c12565b336000908152600460205260409020546005820154429161342291614646565b1161346f5760405162461bcd60e51b815260206004820152601b60248201527f546f6f206c61746520746f207265736f6c7665206469737075746500000000006044820152606401610c12565b600082600281111561348357613483614294565b14156134e4576006818101805460ff1916909117905560018101546040513381526001600160a01b039091169084907f019a1aba5ff3fa2a4ae33ef75016e20a731b879de3bf625981fc366dc333a1499060200160405180910390a3505050565b60018260028111156134f8576134f8614294565b14156135c85760068101805460ff19166007179055600381015461351c3382613b77565b60018201546002830154604080516001600160a01b0392831681526020810185905233818301529051919092169186917ff1183a1b014ad0d5109ced01f033b97b0ecbeac7fc589d29d565609357ff41ea9181900360600190a36001546002830154604051632cacc0cb60e01b81526001600160a01b03918216600482015260248101849052911690632cacc0cb90604401600060405180830381600087803b158015611b6a57600080fd5b60028260028111156135dc576135dc614294565b14156136f15760068101805460ff191660081790556000838152600a6020526040902054806136505760018201546040513381526001600160a01b039091169085907f019a1aba5ff3fa2a4ae33ef75016e20a731b879de3bf625981fc366dc333a1499060200160405180910390a3610ddf565b61365a3382613b77565b60018201546002830154604080516001600160a01b0392831681526020810185905233818301529051919092169186917f24b26f6741ee1fe16a2a9656efe9fba8d2f6306d1804c4d76504ea8f2fcc7a3d9181900360600190a36001546002830154604051632cacc0cb60e01b81526001600160a01b03918216600482015260248101849052911690632cacc0cb90604401611b50565b505050565b806137435760405162461bcd60e51b815260206004820152601d60248201527f436c61696d616e7420726573706f6e736520706572696f64207a65726f0000006044820152606401610c12565b60038190556040518181527f14aadc0eb5e23e0beac6698111aeace92a48719e61b97d23309fe2ad5532da0f906020015b60405180910390a150565b610c25828260405160240161379592919061482c565b60408051601f198184030181529190526020810180516001600160e01b03167f9710a9d000000000000000000000000000000000000000000000000000000000179052613e12565b600082815260096020526040902060018101546001600160a01b031633146138475760405162461bcd60e51b815260206004820152601360248201527f53656e646572206e6f7420636c61696d616e74000000000000000000000000006044820152606401610c12565b6001600682015460ff16600981111561386257613862614294565b141561393b5742600254826005015461387b9190614646565b11156138c95760405162461bcd60e51b815260206004820152601a60248201527f4177616974696e67206d65646961746f7220726573706f6e73650000000000006044820152606401610c12565b4260035460025483600501546138df9190614646565b6138e99190614646565b116139365760405162461bcd60e51b815260206004820152601a60248201527f546f6f206c61746520746f2063726561746520646973707574650000000000006044820152606401610c12565b6139b7565b6003600682015460ff16600981111561395657613956614294565b141561396f574260035482600501546138e99190614646565b60405162461bcd60e51b815260206004820152601760248201527f436c61696d206973206e6f742064697370757461626c650000000000000000006044820152606401610c12565b6139c082611eb0565b613a0c5760405162461bcd60e51b815260206004820152601560248201527f41726269747261746f72206c61636b7320726f6c6500000000000000000000006044820152606401610c12565b6001600160a01b038216600090815260046020526040902054613a715760405162461bcd60e51b815260206004820152601f60248201527f41726269747261746f7220726573706f6e736520706572696f64207a65726f006044820152606401610c12565b60068101805460ff1916600590811790915542908201556000838152600b602090815260409182902080546001600160a01b03861673ffffffffffffffffffffffffffffffffffffffff1990911681179091559151918252339185917ff0ac7acb9253135806253b0c4bcb114993d95528b372569fad5a16f2f6116f779101612668565b80613b425760405162461bcd60e51b815260206004820152601d60248201527f4d65646961746f7220726573706f6e736520706572696f64207a65726f0000006044820152606401610c12565b60028190556040518181527f2a935b3623b7502b1c232465ec66ced2e9862c415aded2a4fdf78973939be3c990602001613774565b6001600160a01b03821660009081526005602052604090208054829015613bd85781548290613ba8906001906144bd565b81548110613bb857613bb86144d4565b90600052602060002090600202016001015481613bd59190614646565b90505b60408051808201825242815260208082018481528554600181810188556000888152848120955160029093029095019182559151908201556001600160a01b038816835260069091529190200154613c2f856109b4565b1115610ddf5760405162461bcd60e51b815260206004820152600e60248201527f51756f74612065786365656465640000000000000000000000000000000000006044820152606401610c12565b6001600160a01b038116613cd35760405162461bcd60e51b815260206004820152601560248201527f41706933506f6f6c2061646472657373207a65726f00000000000000000000006044820152606401610c12565b6001805473ffffffffffffffffffffffffffffffffffffffff19166001600160a01b0383169081179091556040519081527fcfc65ac438a1d87c13d90525ec526e4c8d97e0c51b188c401a6fa6e32a6e99a190602001613774565b6060613d5383836040518060600160405280602781526020016148bb60279139613e33565b9392505050565b610c258282604051602401613d7092919061484e565b60408051601f198184030181529190526020810180516001600160e01b03167f319af33300000000000000000000000000000000000000000000000000000000179052613e12565b610c258282604051602401613dce929190614879565b60408051601f198184030181529190526020810180516001600160e01b03167f4b5c4277000000000000000000000000000000000000000000000000000000001790525b80516a636f6e736f6c652e6c6f67602083016000808483855afa5050505050565b6060833b613ea95760405162461bcd60e51b815260206004820152602660248201527f416464726573733a2064656c65676174652063616c6c20746f206e6f6e2d636f60448201527f6e747261637400000000000000000000000000000000000000000000000000006064820152608401610c12565b600080856001600160a01b031685604051613ec4919061489e565b600060405180830381855af49150503d8060008114613eff576040519150601f19603f3d011682016040523d82523d6000602084013e613f04565b606091505b5091509150613f14828286613f1e565b9695505050505050565b60608315613f2d575081613d53565b825115613f3d5782518084602001fd5b8160405162461bcd60e51b8152600401610c129190614098565b828054613f63906144ea565b90600052602060002090601f016020900481019282613f855760008555613fcb565b82601f10613f9e57805160ff1916838001178555613fcb565b82800160010185558215613fcb579182015b82811115613fcb578251825591602001919060010190613fb0565b50613fd7929150613fdb565b5090565b5b80821115613fd75760008155600101613fdc565b60006020828403121561400257600080fd5b5035919050565b80356001600160a01b038116811461402057600080fd5b919050565b60006020828403121561403757600080fd5b613d5382614009565b60005b8381101561405b578181015183820152602001614043565b83811115610ddf5750506000910152565b60008151808452614084816020860160208601614040565b601f01601f19169290920160200192915050565b602081526000613d53602083018461406c565b600080604083850312156140be57600080fd5b6140c783614009565b946020939093013593505050565b600080604083850312156140e857600080fd5b50508035926020909101359150565b60008060006060848603121561410c57600080fd5b61411584614009565b95602085013595506040909401359392505050565b60008083601f84011261413c57600080fd5b50813567ffffffffffffffff81111561415457600080fd5b60208301915083602082850101111561416c57600080fd5b9250929050565b600080600080600080600080600060e08a8c03121561419157600080fd5b61419a8a614009565b985060208a0135975060408a0135965060608a0135955060808a013567ffffffffffffffff808211156141cc57600080fd5b6141d88d838e0161412a565b909750955060a08c0135945060c08c01359150808211156141f857600080fd5b506142058c828d0161412a565b915080935050809150509295985092959850929598565b6000806040838503121561422f57600080fd5b8235915061423f60208401614009565b90509250929050565b60008060006040848603121561425d57600080fd5b83359250602084013567ffffffffffffffff81111561427b57600080fd5b6142878682870161412a565b9497909650939450505050565b634e487b7160e01b600052602160045260246000fd5b87815260006001600160a01b03808916602084015280881660408401525085606083015260e060808301526142e260e083018661406c565b90508360a0830152600a831061430857634e487b7160e01b600052602160045260246000fd5b8260c083015298975050505050505050565b6000806020838503121561432d57600080fd5b823567ffffffffffffffff8082111561434557600080fd5b818501915085601f83011261435957600080fd5b81358181111561436857600080fd5b8660208260051b850101111561437d57600080fd5b60209290920196919550909350505050565b6000602080830181845280855180835260408601915060408160051b870101925083870160005b828110156143e457603f198886030184526143d285835161406c565b945092850192908501906001016143b6565b5092979650505050505050565b6000806040838503121561440457600080fd5b8235915060208301356003811061441a57600080fd5b809150509250929050565b600080600080600080600060c0888a03121561444057600080fd5b61444988614009565b965061445760208901614009565b955060408801359450606088013593506080880135925060a088013567ffffffffffffffff81111561448857600080fd5b6144948a828b0161412a565b989b979a50959850939692959293505050565b634e487b7160e01b600052601160045260246000fd5b6000828210156144cf576144cf6144a7565b500390565b634e487b7160e01b600052603260045260246000fd5b600181811c908216806144fe57607f821691505b6020821081141561451f57634e487b7160e01b600052602260045260246000fd5b50919050565b60006020828403121561453757600080fd5b81518015158114613d5357600080fd5b60006bffffffffffffffffffffffff19808a60601b168352808960601b166014840152508660288301528560488301528460688301528284608884013750600091016088019081529695505050505050565b60006000198214156145ad576145ad6144a7565b5060010190565b81835281816020850137506000828201602090810191909152601f909101601f19169091010190565b60006101006001600160a01b038d1683528b60208401528a6040840152896060840152806080840152614613818401898b6145b4565b90508660a084015282810360c084015261462e8186886145b4565b9150508260e08301529b9a5050505050505050505050565b60008219821115614659576146596144a7565b500190565b6020815260006146726020830184866145b4565b949350505050565b634e487b7160e01b600052604160045260246000fd5b6000808335601e198436030181126146a757600080fd5b83018035915067ffffffffffffffff8211156146c257600080fd5b60200191503681900382131561416c57600080fd5b8054600090600181811c90808316806146f157607f831692505b602080841082141561471357634e487b7160e01b600052602260045260246000fd5b83885281801561472a576001811461473e5761476c565b60ff1986168983015260408901965061476c565b876000528160002060005b868110156147645781548b8201850152908501908301614749565b8a0183019750505b50505050505092915050565b82815260406020820152600061467260408301846146d7565b6000602082840312156147a357600080fd5b5051919050565b602081526000613d5360208301846146d7565b60006001600160a01b03808a16835288602084015287604084015286606084015260c060808401526147f360c0840186886145b4565b915080841660a08401525098975050505050505050565b60008261482757634e487b7160e01b600052601260045260246000fd5b500490565b60408152600061483f604083018561406c565b90508260208301529392505050565b604081526000614861604083018561406c565b90506001600160a01b03831660208301529392505050565b60408152600061488c604083018561406c565b8281036020840152610a44818561406c565b600082516148b0818460208701614040565b919091019291505056fe416464726573733a206c6f772d6c6576656c2064656c65676174652063616c6c206661696c6564a26469706673582212206f2d4ee5a8ebf476b49d542bb2fc230e4506f05a7e1d7f176e65ab4bcc4300f964736f6c63430008090033",
  "linkReferences": {},
  "deployedLinkReferences": {}
}